:020000040800F2
:1000000000C000200D0E0008DD090008E509000809
:10001000ED090008F5090008FD09000800000000CE
:10002000000000000000000000000000050A0008B9
:10003000130A000800000000210A0008310A000825
:100040005D0E00085D0E00085D0E00085D0E0008E4
:100050005D0E00085D0E00085D0E00085D0E0008D4
:100060005D0E00085D0E00085D0E00085D0E0008C4
:100070005D0E00085D0E00085D0E00085D0E0008B4
:100080005D0E00085D0E00085D0E00085D0E0008A4
:100090005D0E00085D0E00085D0E00085D0E000894
:1000A0005D0E00085D0E00085D0E00085D0E000884
:1000B0005D0E000800000000000000005D0E00085A
:1000C0005D0E00085D0E00085D0E00085D0E000864
:1000D0005D0E00084D0A00085D0E0008610A000868
:1000E0005D0E00085D0E000800000000000000002A
:1000F0000000000000000000000000000000000000
:10010000000000005D0E0008000000005D0E000809
:1001100000000000000000005D0E00085D0E0008F9
:100120005D0E00085D0E00085D0E00085D0E000803
:100130005D0E00080000000000000000000000004C
:100140005D0E00085D0E00085D0E00085D0E0008E3
:100150005D0E00085D0E00085D0E00085D0E0008D3
:100160005D0E00085D0E00085D0E00080000000036
:100170005D0E00085D0E00085D0E00080000000026
:0C0180005D0E00085D0E00085D0E00081A
:1001900010B5054C237833B9044B13B10448AFF3C1
:1001A00000800123237010BDA40000200000000087
:1001B000E48F000808B5034B1BB103490348AFF3B4
:1001C000008008BD00000000A8000020E48F0008A7
:1001D000034613F8012B002AFBD1181A0138704787
:1001E00001F0FF01102A2BDB10F0070F08D010F8E8
:1001F000013B013A8B422DD010F0070F42B3F6D1EC
:10020000F0B441EA012141EA014122F007047FF004
:1002100000070023F0E80256083C85EA010586EA5B
:10022000010685FA47F5A3FA87F586FA47F6A5FA97
:1002300087F68EB9EED1F0BC01F0FF0102F00702A3
:1002400032B110F8013B013A83EA010313B1F8D14E
:100250000020704701387047002D06BF354603382F
:10026000073815F0010F07D1013015F4807F02BF68
:10027000013015F4C03F0130F0BC0138704700BFB9
:1002800053B94AB9002908BF00281CBF4FF0FF31FD
:100290004FF0FF3000F088B9ADF1080C6DE904CEE5
:1002A00000F006F8DDF804E0DDE9022304B0704751
:1002B0002DE9F047089D0F4604468C46002B48D197
:1002C0008A42164661D9B2FA82F34BB1C3F12002D9
:1002D00001FA03FC20FA02F29E4042EA0C0C9C4018
:1002E0004FEA164EB7B2BCFBFEF1220C0EFB11CC4E
:1002F00042EA0C4201FB07F0904209D9B21801F121
:10030000FF3C80F0EE80904240F2EB8002393244B4
:10031000121AA4B2B2FBFEF00EFB102244EA024411
:1003200000FB07F7A74209D9341900F1FF3280F02A
:10033000DA80A74240F2D7803444023840EA0140D4
:10034000E41B00211DB1DC400023C5E90043BDE8EA
:10035000F0878B4206D90DB1C5E90001002108469E
:10036000BDE8F087B3FA83F1002948D1BB4202D33C
:10037000824200F20781841A67EB0302012094464F
:10038000002DE4D0C5E9004CE1E7002A00F092809E
:10039000B2FA82F3002B40F0A8808A1A4FEA164E78
:1003A0001FFA86FC0121200CB2FBFEF70EFB172280
:1003B00040EA02420CFB07F0904207D9B21807F15D
:1003C000FF3802D2904200F2E2804746121AA4B2ED
:1003D000B2FBFEF00EFB102244EA02440CFB00FCD0
:1003E000A44507D9341900F1FF3202D2A44500F226
:1003F000CB801046A4EB0C0440EA0740A2E7C1F111
:1004000020068B4022FA06FC4CEA030C07FA01F4A2
:1004100020FA06F3F7404FEA1C49234300FA01F89B
:100420001FFA8CFEB7FBF9F01C0C09FB107744EAAD
:10043000074400FB0EF7A74202FA01F20AD91CEBAF
:10044000040400F1FF3A80F09B80A74240F29880BC
:1004500002386444E41B9FB2B4FBF9F309FB134474
:1004600047EA044403FB0EFEA64509D91CEB04042D
:1004700003F1FF3780F08280A6457FD9023B6444B8
:1004800043EA0040A4EB0E04A0FB02E7BC42734623
:10049000B94663D360D05DB1B8EB030264EB0904E5
:1004A00004FA06F622FA01F31E43CC40C5E90064C3
:1004B00000214CE76208480842EAC1710B0C43EA8C
:1004C00000438AB242EA0342B3FBF6F1E407B446C2
:1004D0003746B6461F23B0FBF6F0D21B41EA004177
:1004E00061E7614614E7104628E7C3F1200120FACE
:1004F00001F29E4027FA01F19F403A434FEA164E1F
:100500001FFA86FCB1FBFEF70EFB1710110C41EA37
:10051000004107FB0CF8884504FA03F43AD9711836
:1005200007F1FF3001D288451FD8A1EB0801B1FBCC
:10053000FEF808FB0CF70EFB181192B242EA0142DA
:10054000BA422FD2B21808F1FF31C6D2BA42C4D291
:10055000A8F102013244C0E7F0459CD2BEEB020391
:1005600067EB0C070138B94695E7A6EB080841444C
:10057000B81EB1FBFEF808FB0CF7DCE73B467FE753
:10058000504667E70846FBE63444023832E7023F4C
:1005900032441BE7A1EB08013846B1FBFEF808FB2B
:1005A0000CF7C8E7414698E7704700BF80B58AB0AE
:1005B00000AF07F1140300221A605A609A60DA60F3
:1005C0001A615C4BDB6C5B4A43F00403D364594B08
:1005D000DB6C03F004033B613B69564BDB6C554A13
:1005E00043F00103D364534BDB6C03F00103FB6066
:1005F000FB68504BDB6C4F4A43F00203D3644D4B16
:10060000DB6C03F00203BB60BB684A4BDB6C494AFE
:1006100043F00803D364474BDB6C03F008037B60B3
:100620007B68002243F2DB31434800F0D7FF002211
:1006300041F2FF714FF0904000F0D0FF0022042102
:100640003E4800F0CBFF002238213D4800F0C6FFB5
:1006500043F2DB337B610123BB610023FB61002399
:100660003B6207F114031946334800F025FE0423CA
:100670007B614FF48813BB610023FB6107F1140316
:1006800019462D4800F018FE41F2FF737B610123EB
:10069000BB610023FB6100233B6207F11403194691
:1006A0004FF0904000F008FE20237B610023BB61E7
:1006B0000123FB6107F1140319461F4800F0FCFDFC
:1006C00007237B610023BB610123FB6107F1140356
:1006D00019461B4800F0F0FD4FF400637B610023D6
:1006E000BB610023FB6107F1140319464FF09040F2
:1006F00000F0E2FD04237B610123BB610023FB6169
:1007000000233B6207F1140319460C4800F0D4FDA6
:1007100038237B610123BB610023FB6100233B6223
:1007200007F114031946064800F0C6FD00BF28373C
:10073000BD4680BD0010024000080048000C004883
:100740000004004880B500AF00F089FB00F038F8E5
:10075000FFF72CFF00F09CF800F000FA00F02EFAF2
:1007600000F0D0F9322000F0EFFB06F0EFFB07F0CD
:10077000B5F9012201210E4807F07BFC022200217D
:100780000C4807F071FD012208210B4800F026FFFC
:1007900001220421094800F021FF0122102106480E
:1007A00000F01CFF032004F043F904F011FEFCE705
:1007B000EC020020FC03002000040048000C00486C
:1007C00080B596B000AF07F114034422002118460B
:1007D00007F07AFF3B4600221A605A609A60DA609E
:1007E0001A614FF4007000F02FFF0346002B01D078
:1007F00000F048F800F00AFF214BD3F89030204A6F
:1008000023F01803C2F8903014237B610123FB61AD
:100810000123FB6200233B6360237B630223FB63B2
:1008200001233B6401237B642823BB640723FB640F
:1008300002233B6502237B6507F11403184600F091
:1008400059FF0346002B01D000F01CF80F233B603A
:1008500003237B600023BB600023FB6000233B611C
:100860003B460421184601F059FB0346002B01D0FA
:1008700000F008F801F0C0FF00BF5837BD4680BD4A
:100880000010024080B400AF72B600BF00BFFDE7A9
:1008900080B500AF1B4B1C4A1A601A4B4FF4827292
:1008A0005A60184B00229A60164B4FF4E062DA60EF
:1008B000144B00221A61134B00225A61114B4FF462
:1008C00000729A610F4B0022DA610E4B00221A620D
:1008D0000C4B00225A620B4B00229A62094B0722F2
:1008E000DA62084B00221A63064B08225A63054855
:1008F00002F084F80346002B01D0FFF7C3FF00BFCE
:1009000080BD00BFC00000200038004080B58AB024
:1009100000AF786007F1140300221A605A609A60F1
:10092000DA601A617B681B68174A934228D1174B1B
:100930009B6D164A43F480439365144B9B6D03F4FF
:1009400080433B613B69114BDB6C104A43F002036F
:10095000D3640E4BDB6C03F00203FB60FB684FF4C7
:1009600060437B610223BB610023FB6103233B6285
:1009700005237B6207F114031946054800F09CFC2F
:1009800000BF2837BD4680BD00380040001002403F
:100990000004004880B483B000AF0F4B1B6E0E4ABA
:1009A00043F0010313660C4B1B6E03F001037B60E5
:1009B0007B68094B9B6D084A43F080539365064B57
:1009C0009B6D03F080533B603B6800BF0C37BD4616
:1009D0005DF8047B704700BF0010024080B400AF98
:1009E00000BFFDE780B400AF00BFFDE780B400AFFB
:1009F00000BFFDE780B400AF00BFFDE780B400AFEB
:100A000000BFFDE780B400AF00BFBD465DF8047BCA
:100A1000704780B400AF00BFBD465DF8047B7047EF
:100A200080B400AF00BFBD465DF8047B7047000096
:100A300080B500AF00F068FA034B1B680133024A2F
:100A4000136000BF80BD00BF2401002080B500AF4F
:100A5000024802F03FFD00BF80BD00BFB40100208E
:100A600080B500AF024802F035FD00BF80BD00BF79
:100A70003C02002080B586B000AF7860144A154B68
:100A8000D31A7B617B693B61134B1B68002B02D13E
:100A9000114B124A1A60104B1A687B6813443A696A
:100AA0009A4207D207F018FE03460C221A604FF054
:100AB000FF3309E0084B1B68FB60074B1A687B6833
:100AC0001344054A1360FB6818461837BD4680BDBD
:100AD00000C000200004000028010020F80A0020C7
:100AE00080B400AF064BD3F88830054A43F4700356
:100AF000C2F8883000BFBD465DF8047B704700BF78
:100B000000ED00E080B500AF124B134A1A60114BA4
:100B10004FF4E1325A600F4B00229A600D4B0022D5
:100B2000DA600C4B00221A610A4B0C225A61094B05
:100B300000229A61074B00221A62064B00225A6279
:100B4000044802F0D9FA0346002B01D0FFF79AFEC1
:100B500000BF80BD2C0100200080004080B500AFA8
:100B6000144B154A1A60134B4FF416525A60114B2E
:100B700000229A600F4B0022DA600E4B00221A61AD
:100B80000C4B0C225A610B4B00229A61094B00223C
:100B9000DA61084B00221A62064B00225A620548AD
:100BA00002F0AAFA0346002B01D0FFF76BFE00BF4C
:100BB00080BD00BFB40100200038014080B500AF07
:100BC000144B154A1A60134B4FF416525A60114BCE
:100BD00000229A600F4B0022DA600E4B00221A614D
:100BE0000C4B0C225A610B4B00229A61094B0022DC
:100BF000DA61084B00221A62064B00225A6205484D
:100C000002F07AFA0346002B01D0FFF73BFE00BF4B
:100C100080BD00BF3C0200200048004080B5A6B067
:100C200000AF786007F1840300221A605A609A606E
:100C3000DA601A6107F1240360220021184607F0E8
:100C400043FD7B681B686B4A93423CD120237B6247
:100C500000233B6507F12403184601F083FB03469C
:100C6000002B01D0FFF70EFE634BDB6D624A43F0B1
:100C70000103D365604BDB6D03F001033B623B6A0C
:100C80005D4BDB6C5C4A43F00203D3645A4BDB6C74
:100C900003F00203FB61FB694FF44063C7F8843043
:100CA0000223C7F888300023C7F88C300323C7F825
:100CB00090300823C7F8943007F1840319464F4851
:100CC00000F0FAFA91E07B681B684D4A934243D1E9
:100CD00001237B6200237B6407F12403184601F0A3
:100CE00041FB0346002B01D0FFF7CCFD424B1B6EAE
:100CF000414A43F4804313663F4B1B6E03F4804329
:100D0000BB61BB693C4BDB6C3B4A43F00203D364E1
:100D1000394BDB6C03F002037B617B69C023C7F8AE
:100D200084300223C7F888300023C7F88C300323AF
:100D3000C7F890300723C7F8943007F184031946A9
:100D40002E4800F0B9FA00220021252000F0FBF91E
:100D5000252000F014FA48E07B681B68294A93427A
:100D600043D104237B620023FB6407F1240318466C
:100D700001F0F8FA0346002B01D0FFF783FD1E4B6C
:100D80009B6D1D4A43F4802393651B4B9B6D03F4BD
:100D900080233B613B69184BDB6C174A43F004032B
:100DA000D364154BDB6C03F00403FB60FB684FF46A
:100DB0004063C7F884300223C7F888300023C7F89F
:100DC0008C300323C7F890300723C7F8943007F11D
:100DD000840319460C4800F06FFA002200212720F6
:100DE00000F0B1F9272000F0CAF900BF9837BD46DE
:100DF00080BD00BF00800040001002400004004899
:100E0000003801400048004000080048DFF834D0B6
:100E1000FFF766FE0C480D490D4A002302E0D45846
:100E2000C4500433C4188C42F9D30A4A0A4C002334
:100E300001E013600432A242FBD307F053FCFFF73A
:100E400081FCFEE700C0002000000020A40000207C
:100E5000BC960008A4000020F80A0020FEE780B538
:100E600082B000AF0023FB71032000F061F90F2076
:100E700000F00EF80346002B02D00123FB7101E0C5
:100E8000FFF788FDFB7918460837BD4680BD000096
:100E900080B584B000AF78600023FB73174B1B78DC
:100EA000002B23D0164B1A68144B1B7819464FF4AD
:100EB0007A73B3FBF1F3B2FBF3F3184600F06DF96C
:100EC0000346002B0FD17B680F2B09D800227968CD
:100ED0004FF0FF3000F037F90A4A7B68136007E0F3
:100EE0000123FB7304E00123FB7301E00123FB7387
:100EF000FB7B18461037BD4680BD00BF08000020B0
:100F0000000000200400002080B400AF064B1B78D6
:100F10001A46064B1B681344044A136000BFBD46C3
:100F20005DF8047B704700BF08000020C402002069
:100F300080B400AF034B1B681846BD465DF8047BC8
:100F4000704700BFC402002080B584B000AF786055
:100F5000FFF7EEFFB8607B68FB60FB68B3F1FF3F13
:100F600005D00A4B1B781A46FB681344FB6000BF90
:100F7000FFF7DEFF0246BB68D31AFA689A42F7D839
:100F800000BF00BF1037BD4680BD00BF0800002075
:100F900080B485B000AF78607B6803F00703FB6026
:100FA0000C4BDB68BB60BA684FF6FF031340BB60B5
:100FB000FB681A02BB68134343F0BF6343F400337A
:100FC000BB60044ABB68D36000BF1437BD465DF800
:100FD000047B704700ED00E080B400AF044BDB6899
:100FE0001B0A03F007031846BD465DF8047B7047F3
:100FF00000ED00E080B483B000AF0346FB7197F9C9
:101000000730002B0BDBFB7903F01F02074997F930
:1010100007305B09012000FA02F241F8232000BFEB
:101020000C37BD465DF8047B704700BF00E100E06F
:1010300080B483B000AF03463960FB7197F9073085
:10104000002B0ADB3B68DAB20C4997F90730120132
:10105000D2B20B4483F800230AE03B68DAB20849B5
:10106000FB7903F00F03043B1201D2B20B441A7652
:1010700000BF0C37BD465DF8047B704700E100E01F
:1010800000ED00E080B489B000AFF860B9607A602C
:10109000FB6803F00703FB61FB69C3F10703042B43
:1010A00028BF0423BB61FB690433062B02D9FB690B
:1010B000033B00E000237B614FF0FF32BB6902FA83
:1010C00003F3DA43BB681A407B699A404FF0FF3163
:1010D0007B6901FA03F3D9437B680B40134318463D
:1010E0002437BD465DF8047B7047000080B582B0B0
:1010F00000AF78607B68013BB3F1807F01D30123AF
:101100000FE00A4A7B68013B53600F214FF0FF302C
:10111000FFF78EFF054B00229A60044B07221A60EE
:10112000002318460837BD4680BD00BF10E000E030
:1011300080B582B000AF78607868FFF729FF00BF04
:101140000837BD4680BD80B586B000AF0346B960A4
:101150007A60FB7300237B61FFF73EFF78617A685A
:10116000B9687869FFF78EFF024697F90F3011468C
:101170001846FFF75DFF00BF1837BD4680BD80B53C
:1011800082B000AF0346FB7197F907301846FFF7AE
:1011900031FF00BF0837BD4680BD80B582B000AFCB
:1011A00078607868FFF7A2FF034618460837BD4607
:1011B00080BD80B483B000AF78607B68002B01D124
:1011C000012331E07B6893F82530DBB2022B08D095
:1011D0007B680422DA637B68002283F824200123E1
:1011E00022E07B681B681A687B681B6822F001029A
:1011F0001A607B681B681A687B681B6822F00E0205
:101200001A607B685B6C03F01C027B681B6C01211D
:1012100001FA02F25A607B68012283F825207B687C
:10122000002283F82420002318460C37BD465DF8C1
:10123000047B704780B584B000AF78600023FB73F7
:101240007B6893F82530DBB2022B05D07B68042243
:10125000DA630123FB7329E07B681B681A687B68EB
:101260001B6822F001021A607B681B681A687B68A1
:101270001B6822F00E021A607B685B6C03F01C0294
:101280007B681B6C012101FA02F25A607B68012223
:1012900083F825207B68002283F824207B689B6BE1
:1012A000002B03D07B689B6B78689847FB7B1846C4
:1012B0001037BD4680BD000080B487B000AF7860B5
:1012C000396000237B6154E13B681A6801217B6926
:1012D00001FA03F31340FB60FB68002B00F046812A
:1012E0003B685B6803F00303012B05D03B685B6838
:1012F00003F00303022B30D17B689B683B617B6961
:101300005B00032202FA03F3DB433A6913403B61BB
:101310003B68DA687B695B0002FA03F33A691343BE
:101320003B617B683A699A607B685B683B6101223C
:101330007B6902FA03F3DB433A6913403B613B6884
:101340005B681B0903F001027B6902FA03F33A6947
:1013500013433B617B683A695A603B685B6803F002
:101360000303032B17D07B68DB683B617B695B0061
:10137000032202FA03F3DB433A6913403B613B6803
:101380009A687B695B0002FA03F33A6913433B6195
:101390007B683A69DA603B685B6803F00303022B01
:1013A00023D17B69DA087B68083253F822303B612D
:1013B0007B6903F007039B000F2202FA03F3DB4370
:1013C0003A6913403B613B681A697B6903F0070384
:1013D0009B0002FA03F33A6913433B617B69DA0825
:1013E0007B680832396943F822107B681B683B61CF
:1013F0007B695B00032202FA03F3DB433A69134083
:101400003B613B685B6803F003027B695B0002FAA7
:1014100003F33A6913433B617B683A691A603B689E
:101420005B6803F44033002B00F0A080584B1B6E28
:10143000574A43F001031366554B1B6E03F001033B
:10144000BB60BB68534A7B699B08023352F8233068
:101450003B617B6903F003039B000F2202FA03F355
:10146000DB433A6913403B617B68B3F1904F19D07D
:101470007B68494A934213D07B68484A93420DD017
:101480007B68474A934207D07B68464A934201D122
:10149000042308E0072306E0032304E0022302E01C
:1014A000012300E000237A6902F0030292009340D6
:1014B0003A6913433B6137497B699B0802333A69B8
:1014C00041F82320384B9B683B61FB68DB433A695A
:1014D00013403B613B685B6803F48013002B03D02F
:1014E0003A69FB6813433B612F4A3B6993602E4B7B
:1014F000DB683B61FB68DB433A6913403B613B6857
:101500005B6803F40013002B03D03A69FB681343B4
:101510003B61254A3B69D360234B5B683B61FB68B9
:10152000DB433A6913403B613B685B6803F400337B
:10153000002B03D03A69FB6813433B611A4A3B69AD
:101540005360194B1B683B61FB68DB433A691340EE
:101550003B613B685B6803F48033002B03D03A693E
:10156000FB6813433B61104A3B6913607B6901339D
:101570007B613B681A687B6922FA03F3002B7FF4D6
:10158000A3AE00BF00BF1C37BD465DF8047B7047AB
:10159000001002400000014000040048000800481C
:1015A000000C0048001000480004014080B485B0E1
:1015B00000AF78600B467B807B681A697B8813409C
:1015C000002B02D00123FB7301E00023FB73FB7BA4
:1015D00018461437BD465DF8047B704780B483B06D
:1015E00000AF78600B467B8013467B707B78002BC6
:1015F00003D07A887B689A6102E07A887B689A6275
:1016000000BF0C37BD465DF8047B704780B400AF67
:10161000054B1B68044A43F48073136000BFBD464A
:101620005DF8047B704700BF0070004080B400AFDD
:10163000044B1B6803F4C0631846BD465DF8047B89
:10164000704700BF0070004080B485B000AF786084
:101650007B68B3F5007F30D1234B1B6803F4C06374
:10166000B3F5007F38D0204B1B6823F4C0631E4ABB
:1016700043F4007313601D4B1B68322202FB03F31B
:101680001B4AA2FB03239B0C0133FB6002E0FB68B7
:10169000013BFB60144B5B6903F48063B3F5806F1F
:1016A00002D1FB68002BF2D10F4B5B6903F480631E
:1016B000B3F5806F10D103230FE00B4B1B6803F4CD
:1016C000C063B3F5806F07D0074B1B6823F4C0637A
:1016D000054A43F480631360002318461437BD465F
:1016E0005DF8047B704700BF0070004000000020E0
:1016F00083DE1B4380B588B000AF78607B68002B29
:1017000002D1012300F002BC964B9B6803F00C034E
:10171000BB61944BDB6803F003037B617B681B6850
:1017200003F01003002B00F0E480BB69002B07D00E
:10173000BB690C2B40F08B807B69012B40F08780CC
:10174000884B1B6803F00203002B05D07B689B6964
:10175000002B01D10123D9E37B681A6A814B1B68F6
:1017600003F00803002B04D07E4B1B6803F0F0034A
:1017700005E07C4BD3F894301B0903F0F00393424F
:1017800023D27B681B6A184600F08CFD0346002BB1
:1017900001D00123BAE3734B1B68724A43F008037C
:1017A0001360704B1B6823F0F0027B681B6A6D4965
:1017B00013430B606B4B5B6823F47F427B68DB69F0
:1017C0001B02684913434B6025E0664B1B68654A62
:1017D00043F008031360634B1B6823F0F0027B683F
:1017E0001B6A604913430B605E4B5B6823F47F42C6
:1017F0007B68DB691B025B4913434B60BB69002BB1
:1018000009D17B681B6A184600F04CFD0346002B8B
:1018100001D001237AE300F081FC0246514B9B6822
:101820001B0903F00F035049CB5C03F01F0322FA9E
:1018300003F34E4A13604E4B1B681846FFF728FB14
:101840000346FB73FB7B002B52D0FB7B5EE37B6884
:101850009B69002B32D0434B1B68424A43F0010383
:101860001360FFF765FB386108E0FFF761FB024694
:101870003B69D31A022B01D9032347E3394B1B6879
:1018800003F00203002BF0D0364B1B68354A43F0BF
:1018900008031360334B1B6823F0F0027B681B6A5C
:1018A000304913430B602F4B5B6823F47F427B6806
:1018B000DB691B022B4913434B601AE0294B1B6861
:1018C000284A23F001031360FFF732FB386108E078
:1018D000FFF72EFB02463B69D31A022B01D90323E3
:1018E00014E3204B1B6803F00203002BF0D100E04F
:1018F00000BF7B681B6803F00103002B73D0BB693A
:10190000082B05D0BB690C2B0ED17B69032B0BD1A7
:10191000144B1B6803F40033002B63D07B685B68B7
:10192000002B5FD10123F1E27B685B68B3F5803F58
:1019300006D10C4B1B680B4A43F48033136025E03F
:101940007B685B68B3F5A02F14D1064B1B68054A72
:1019500043F480231360034B1B68024A43F4803333
:10196000136013E000100240F49100080000002012
:1019700004000020A04B1B689F4A23F480331360AF
:101980009D4B1B689C4A23F4802313607B685B6833
:10199000002B13D0FFF7CCFA386108E0FFF7C8FA44
:1019A00002463B69D31A642B01D90323AEE2924B62
:1019B0001B6803F40033002BF0D014E0FFF7B8FAF3
:1019C000386108E0FFF7B4FA02463B69D31A642B8A
:1019D00001D903239AE2884B1B6803F40033002BE0
:1019E000F0D100E000BF7B681B6803F00203002B0E
:1019F00060D0BB69042B05D0BB690C2B19D17B6966
:101A0000022B16D17C4B1B6803F48063002B05D09E
:101A10007B68DB68002B01D1012377E2764B5B68A2
:101A200023F0F8527B681B691B06734913434B6014
:101A300040E07B68DB68002B23D06F4B1B686E4A4D
:101A400043F480731360FFF773FA386108E0FFF71F
:101A50006FFA02463B69D31A022B01D9032355E2E0
:101A6000654B1B6803F48063002BF0D0624B5B680E
:101A700023F0F8527B681B691B065F4913434B60D8
:101A800018E05D4B1B685C4A23F480731360FFF71A
:101A90004FFA386108E0FFF74BFA02463B69D31A68
:101AA000022B01D9032331E2534B1B6803F48063FB
:101AB000002BF0D17B681B6803F00803002B3CD09F
:101AC0007B685B69002B1CD04B4BD3F894304A4A9F
:101AD00043F00103C2F89430FFF72AFA386108E0B6
:101AE000FFF726FA02463B69D31A022B01D90323DA
:101AF0000CE2414BD3F8943003F00203002BEFD0FB
:101B00001BE03D4BD3F894303B4A23F00103C2F86D
:101B10009430FFF70DFA386108E0FFF709FA024642
:101B20003B69D31A022B01D90323EFE1324BD3F8DF
:101B3000943003F00203002BEFD17B681B6803F0A5
:101B40000403002B00F0A6800023FB772A4B9B6D3B
:101B500003F08053002B0DD1274B9B6D264A43F099
:101B600080539365244B9B6D03F08053BB60BB682F
:101B70000123FB77214B1B6803F48073002B18D1E2
:101B80001E4B1B681D4A43F480731360FFF7D0F9A6
:101B9000386108E0FFF7CCF902463B69D31A022B03
:101BA00001D90323B2E1154B1B6803F48073002BAA
:101BB000F0D07B689B68012B08D10F4BD3F8903095
:101BC0000D4A43F00103C2F8903029E07B689B681E
:101BD000052B15D1084BD3F89030074A43F0040386
:101BE000C2F89030044BD3F89030034A43F001031D
:101BF000C2F8903014E000BF0010024000700040B6
:101C00009A4BD3F89030994A23F00103C2F89030F0
:101C1000964BD3F89030954A23F00403C2F89030E5
:101C20007B689B68002B16D0FFF782F938610AE0C9
:101C3000FFF77EF902463B69D31A41F2883293429C
:101C400001D9032362E1894BD3F8903003F00203FA
:101C5000002BEDD015E0FFF76BF938610AE0FFF7D4
:101C600067F902463B69D31A41F28832934201D99F
:101C700003234BE17D4BD3F8903003F00203002B9C
:101C8000EDD1FB7F012B05D1784B9B6D774A23F07B
:101C9000805393657B681B6803F02003002B3CD0C6
:101CA0007B685B6A002B1CD0704BD3F898306F4A6E
:101CB00043F00103C2F89830FFF73AF9386108E0C1
:101CC000FFF736F902463B69D31A022B01D90323E9
:101CD0001CE1664BD3F8983003F00203002BEFD0E1
:101CE0001BE0624BD3F89830604A23F00103C2F83E
:101CF0009830FFF71DF9386108E0FFF719F902463F
:101D00003B69D31A022B01D90323FFE0574BD3F8C9
:101D1000983003F00203002BEFD17B689B6A002B05
:101D200000F0F3807B689B6A022B40F0C9804F4B28
:101D3000DB687B617B6903F003027B68DB6A9A42A4
:101D40002CD17B6903F070027B681B6B013B1B018C
:101D50009A4223D17B6903F4FE427B685B6B1B02D2
:101D60009A421BD17B6903F078427B689B6BDB0650
:101D70009A4213D17B6903F4C0027B68DB6B5B087A
:101D8000013B5B059A4209D17B6903F0C0627B6825
:101D90001B6C5B08013B5B069A426BD0BB690C2B4A
:101DA00062D0324B1B6803F08063002B01D001230B
:101DB000ACE02E4B1B682D4A23F080731360FFF7B5
:101DC000B7F8386108E0FFF7B3F802463B69D31A69
:101DD000022B01D9032399E0244B1B6803F0007305
:101DE000002BF0D1214BDA68214B13407A68D16A7D
:101DF0007A68126B013A120111437A68526B12022F
:101E000011437A68D26B5208013A520511437A683D
:101E1000126C5208013A520611437A68926BD2064C
:101E20000A4312491343CB60104B1B680F4A43F01F
:101E3000807313600D4BDB680C4A43F08073D360F2
:101E4000FFF776F8386108E0FFF772F802463B6961
:101E5000D31A022B01D9032358E0044B1B6803F06B
:101E60000073002BF0D050E001234FE0001002403F
:101E70008C809D01274B1B6803F00073002B44D11D
:101E8000244B1B68234A43F080731360214BDB68AB
:101E9000204A43F08073D360FFF74AF8386108E0C6
:101EA000FFF746F802463B69D31A022B01D90323F8
:101EB0002CE0184B1B6803F00073002BF0D024E0DB
:101EC000BB690C2B1FD0134B1B68124A23F0807385
:101ED0001360FFF72DF8386108E0FFF729F8024694
:101EE0003B69D31A022B01D903230FE0094B1B686E
:101EF00003F00073002BF0D1064BDA680549064B5E
:101F00001340CB6001E0012300E000231846203796
:101F1000BD4680BD00100240FCFFEEFE80B584B0DF
:101F200000AF786039607B68002B01D10123E7E0C6
:101F3000754B1B6803F007033A689A4210D9724B3D
:101F40001B6823F0070270493B6813430B606E4B1C
:101F50001B6803F007033A689A4201D00123CFE0DF
:101F60007B681B6803F00203002B10D07B689A6823
:101F7000664B9B6803F0F0039A4208D9634B9B6859
:101F800023F0F0027B689B68604913438B607B6899
:101F90001B6803F00103002B4CD07B685B68032BAC
:101FA00007D15A4B1B6803F00073002B21D101238A
:101FB000A6E07B685B68022B07D1544B1B6803F4D7
:101FC0000033002B15D101239AE07B685B68002B5E
:101FD00007D14E4B1B6803F00203002B09D10123EC
:101FE0008EE04A4B1B6803F48063002B01D1012370
:101FF00086E0464B9B6823F003027B685B6843499D
:1020000013438B60FEF794FFF8600AE0FEF790FF41
:102010000246FB68D31A41F28832934201D9032366
:102020006EE03A4B9B6803F00C027B685B689B0098
:102030009A42EBD17B681B6803F00203002B10D09F
:102040007B689A68314B9B6803F0F0039A4208D290
:102050002E4B9B6823F0F0027B689B682B4913434F
:102060008B60294B1B6803F007033A689A4210D231
:10207000254B1B6823F0070223493B6813430B6081
:10208000214B1B6803F007033A689A4201D00123F1
:1020900036E07B681B6803F00403002B08D01B4B61
:1020A0009B6823F4E0627B68DB68184913438B600C
:1020B0007B681B6803F00803002B09D0134B9B6857
:1020C00023F460527B681B69DB00104913438B606B
:1020D00000F024F802460D4B9B681B0903F00F0328
:1020E0000B49CB5C03F01F0322FA03F3094A136088
:1020F000094B1B681846FEF7CBFE0346FB72FB7AC2
:1021000018461037BD4680BD002002400010024036
:10211000F4910008000000200400002080B489B081
:1021200000AF0023FB610023BB613E4B9B6803F0C3
:102130000C033B613B4BDB6803F00303FB603B6933
:10214000002B05D03B690C2B21D1FB68012B1ED144
:10215000344B1B6803F00803002B07D1314BD3F835
:1021600094301B0A03F00F03FB6105E02D4B1B6845
:102170001B0903F00F03FB612B4AFB6952F8233064
:10218000FB613B69002B0DD1FB69BB610AE03B6938
:10219000042B02D1254BBB6104E03B69082B01D124
:1021A000234BBB613B690C2B34D11E4BDB6803F026
:1021B0000303BB60BB68022B03D0BB68032B03D0B7
:1021C00005E01A4B7B6105E0194B7B6102E0FB697E
:1021D0007B6100BF134BDB681B0903F0070301336E
:1021E0007B60104BDB681B0A03F07F037A6903FBFB
:1021F00002F27B68B2FBF3F37B610A4BDB685B0E98
:1022000003F0030301335B003B607A693B68B2FB78
:10221000F3F3BB61BB6918462437BD465DF8047B08
:10222000704700BF001002400C9200080024F40028
:1022300000127A0080B400AF034B1B681846BD46FD
:102240005DF8047B704700BF0000002080B500AF40
:10225000FFF7F0FF0246064B9B681B0A03F00703DB
:102260000449CB5C03F01F0322FA03F3184680BD38
:10227000001002400492000880B500AFFFF7DAFFBB
:102280000246064B9B68DB0A03F007030449CB5C5C
:1022900003F01F0322FA03F3184680BD001002402A
:1022A0000492000880B586B000AF786000233B61DF
:1022B0002A4B9B6D03F08053002B03D0FFF7B6F938
:1022C000786114E0254B9B6D244A43F0805393655D
:1022D000224B9B6D03F08053FB60FB68FFF7A6F970
:1022E00078611E4B9B6D1D4A23F0805393657B697B
:1022F000B3F5007F0BD17B68802B19D97B68A02BAD
:1023000002D902233B6113E001233B6110E07B68AB
:10231000802B02D903233B610AE07B68802B02D12A
:1023200002233B6104E07B68702B01D101233B61F8
:102330000B4B1B6823F0070209493B6913430B60F1
:10234000074B1B6803F007033A699A4201D0012347
:1023500000E0002318461837BD4680BD001002403B
:102360000020024080B586B000AF78600023FB7487
:102370000023BB747B681B6803F40063002B31D01F
:102380007B685B6CB3F5400F1AD0B3F5400F14D8DF
:10239000002B09D0B3F5000F0FD15D4BDB685C4A11
:1023A00043F48033D3600CE07B680433002118468B
:1023B00000F032FA0346FB7403E00123FB7400E0F3
:1023C00000BFFB7C002B0BD1514BD3F8883023F49A
:1023D00040027B685B6C4E491343C1F8883001E0D2
:1023E000FB7CBB747B681B6803F40033002B00F09C
:1023F0009E8000237B74464B9B6D03F08053002B23
:1024000001D1012300E00023002B0DD0404B9B6D38
:102410003F4A43F0805393653D4B9B6D03F08053DF
:10242000BB60BB6801237B743A4B1B68394A43F499
:1024300080731360FEF77CFDF86009E0FEF778FD1D
:102440000246FB68D31A022B02D90323FB7405E072
:10245000304B1B6803F48073002BEFD0FB7C002B08
:102460005AD12B4BD3F8903003F440737B617B69D6
:10247000002B1ED07B68DB6D7A699A4219D0244B01
:10248000D3F8903023F440737B61214BD3F8903024
:102490001F4A43F48033C2F890301D4BD3F890307C
:1024A0001B4A23F48033C2F89030194A7B69C2F882
:1024B00090307B6903F00103002B16D0FEF738FD46
:1024C000F8600BE0FEF734FD0246FB68D31A41F2D8
:1024D0008832934202D90323FB7406E00C4BD3F8F5
:1024E000903003F00203002BECD0FB7C002B0BD1CF
:1024F000074BD3F8903023F440727B68DB6D0449BE
:102500001343C1F8903009E0FB7CBB7406E000BFC8
:102510000010024000700040FB7CBB747B7C012BF0
:1025200005D18D4B9B6D8C4A23F0805393657B685E
:102530001B6803F00103002B0AD0874BD3F88830C7
:1025400023F003027B681B6A83491343C1F8883078
:102550007B681B6803F00203002B0AD07E4BD3F884
:10256000883023F00C027B685B6A7B491343C1F817
:1025700088307B681B6803F00403002B0AD0764B7D
:10258000D3F8883023F030027B689B6A724913438A
:10259000C1F888307B681B6803F02003002B0AD049
:1025A0006D4BD3F8883023F440627B68DB6A6A495C
:1025B0001343C1F888307B681B6803F40073002B59
:1025C0000AD0654BD3F8883023F440227B68DB6B5C
:1025D00061491343C1F888307B681B6803F480634A
:1025E000002B0AD05C4BD3F8883023F440127B6870
:1025F0001B6C59491343C1F888307B681B6803F092
:102600004003002B0AD0544BD3F8883023F44052B7
:102610007B681B6B50491343C1F888307B681B688B
:1026200003F08003002B0AD04B4BD3F8883023F4FF
:1026300040427B685B6B48491343C1F888307B6834
:102640001B6803F48073002B0AD0434BD3F8883007
:1026500023F440327B689B6B3F491343C1F88830B9
:102660007B681B6803F40053002B28D03A4BD3F847
:10267000883023F040627B689B6C37491343C1F874
:1026800088307B689B6CB3F1006F06D1324BDB68FE
:10269000314A43F48013D36011E07B689B6CB3F143
:1026A000806F0CD17B6804330121184600F0B4F828
:1026B0000346FB74FB7C002B01D0FB7CBB747B6866
:1026C0001B6803F40023002B28D0234BD3F8883059
:1026D00023F040627B68DB6C1F491343C1F88830EC
:1026E0007B68DB6CB3F1006F06D11B4BDB681A4AC9
:1026F00043F48013D36011E07B68DB6CB3F1806F2F
:102700000CD17B6804330121184600F085F803469C
:10271000FB74FB7C002B01D0FB7CBB747B681B68CB
:1027200003F48023002B2BD00B4BD3F8883023F0FD
:1027300040627B681B6D08491343C1F888307B6891
:102740001B6DB3F1006F09D1034BDB68024A43F400
:102750008013D36014E000BF001002407B681B6D43
:10276000B3F1806F0CD17B6804330121184600F06F
:1027700053F80346FB74FB7C002B01D0FB7CBB743D
:102780007B681B6803F48043002B1CD0194BD3F8E3
:10279000883023F040527B685B6D16491343C1F8C3
:1027A00088307B685B6DB3F1805F0CD17B6804334C
:1027B0000221184600F030F80346FB74FB7C002B26
:1027C00001D0FB7CBB747B681B6803F40043002BC7
:1027D0000AD0084BD3F8883023F080427B689B6D89
:1027E00004491343C1F88830BB7C18461837BD46EE
:1027F00080BD00BF0010024080B400AF054B1B68D5
:10280000044A43F00403136000BFBD465DF8047B37
:10281000704700BF0010024080B584B000AF786000
:1028200039600023FB73744BDB6803F00303002B58
:1028300018D0714BDB6803F003027B681B689A4277
:102840000DD17B681B68002B09D06B4BDB681B0923
:1028500003F007035A1C7B685B689A4247D0012348
:10286000FB7344E07B681B68032B18D0032B25D82F
:10287000012B02D0022B09D020E05F4B1B6803F034
:102880000203002B1DD10123FB731AE05A4B1B6876
:1028900003F48063002B16D10123FB7313E0564B26
:1028A0001B6803F40033002B0FD1534B1B6803F458
:1028B0008023002B09D10123FB7306E00123FB7366
:1028C00004E000BF02E000BF00E000BFFB7B002B84
:1028D0000DD1494BDB6823F073027B6819687B6874
:1028E0005B68013B1B010B4343491343CB60FB7BFC
:1028F000002B7CD1404B1B683F4A23F08063136060
:10290000FEF716FBB86009E0FEF712FB0246BB6853
:10291000D31A022B02D90323FB7305E0364B1B6845
:1029200003F00063002BEFD1FB7B002B5FD13B68F2
:10293000002B10D1304B1B6923F0784323F4FE4366
:102940007A68926811027A68D268D2060A432A49E4
:1029500013430B6127E03B68012B12D1264B1B6907
:1029600023F4C00323F4FE437A68926811027A6864
:1029700012695208013A52050A431F4913430B6179
:1029800011E01D4B1B6923F0C06323F4FE437A68FA
:10299000926811027A6852695208013A52060A4353
:1029A000154913430B61144B1B68134A43F08063B2
:1029B0001360FEF7BDFAB86009E0FEF7B9FA024607
:1029C000BB68D31A022B02D90323FB7305E00A4B21
:1029D0001B6803F00063002BEFD0FB7B002B06D1BC
:1029E000054B1A697B689B69034913430B61FB7BA9
:1029F00018461037BD4680BD0010024080B584B037
:102A000000AF78607B68002B01D1012395E07B68E3
:102A10005B6A002B08D17B685B68B3F5827F09D0C5
:102A20007B680022DA6105E07B6800221A617B681E
:102A300000225A617B6800229A627B6893F85D30BD
:102A4000DBB2002B06D17B68002283F85C2078681B
:102A5000FDF75CFF7B68022283F85D207B681B68C2
:102A60001A687B681B6822F040021A607B68DB688A
:102A7000B3F5E06F02D90023FB6002E04FF480530E
:102A8000FB607B68DB68B3F5706F07D07B68DB6841
:102A9000B3F5E06F02D07B6800229A627B685B68C6
:102AA00003F482727B689B6803F404431A437B68D7
:102AB0001B6903F002031A437B685B6903F001039F
:102AC0001A437B689B6903F400731A437B68DB69D4
:102AD00003F038031A437B681B6A03F0800342EA61
:102AE00003017B689B6A03F400527B681B680A43FE
:102AF0001A607B689B691B0C03F004027B685B6AAD
:102B000003F010031A437B685B6B03F008031A435E
:102B10007B68DB6803F4706342EA0301FB6803F43B
:102B200080527B681B680A435A607B6800221A66E1
:102B30007B68012283F85D20002318461037BD46CC
:102B400080BD80B588B000AFF860B9603B601346C7
:102B5000FB80FEF7EDF9F861FB887B83FB6893F857
:102B60005D30DBB2012B01D002235CE1BB68002B9E
:102B700002D0FB88002B01D1012354E1FB6893F8BC
:102B80005C30012B01D102234DE1FB68012283F867
:102B90005C20FB68032283F85D20FB6800221A6634
:102BA000FB68BA689A63FB68FA889A87FB68FA88B8
:102BB000DA87FB6800221A64FB680022A3F844202D
:102BC000FB680022A3F84620FB6800221A65FB6818
:102BD0000022DA64FB689B68B3F5004F0FD1FB68F5
:102BE0001B681A68FB681B6822F040021A60FB68C9
:102BF0001B681A68FB681B6842F480421A60FB6815
:102C00001B681B6803F04003402B07D0FB681B6860
:102C10001A68FB681B6842F040021A60FB68DB68B8
:102C2000B3F5E06F52D9FB685B68002B02D07B8B59
:102C3000012B45D1FB689B6B1A88FB681B68DA6027
:102C4000FB689B6B9A1CFB689A63FB68DB8F9BB2EB
:102C5000013B9AB2FB68DA8732E0FB681B689B682D
:102C600003F00203022B12D1FB689B6B1A88FB68EE
:102C70001B68DA60FB689B6B9A1CFB689A63FB68B5
:102C8000DB8F9BB2013B9AB2FB68DA8718E0FEF754
:102C90004FF90246FB69D31A3A689A4203D83B6857
:102CA000B3F1FF3F02D13B68002B09D1FB68012241
:102CB00083F85D20FB68002283F85C200323B2E0E8
:102CC000FB68DB8F9BB2002BC7D183E0FB685B689E
:102CD000002B02D07B8B012B77D1FB68DB8F9BB263
:102CE000012B12D9FB689B6B1A88FB681B68DA60A2
:102CF000FB689B6B9A1CFB689A63FB68DB8F9BB23B
:102D0000023B9AB2FB68DA875FE0FB689A6BFB686C
:102D10001B680C3312781A70FB689B6B5A1CFB689B
:102D20009A63FB68DB8F9BB2013B9AB2FB68DA8740
:102D30004BE0FB681B689B6803F00203022B2BD15E
:102D4000FB68DB8F9BB2012B12D9FB689B6B1A8847
:102D5000FB681B68DA60FB689B6B9A1CFB689A63D4
:102D6000FB68DB8F9BB2023B9AB2FB68DA872CE0F0
:102D7000FB689A6BFB681B680C3312781A70FB684F
:102D80009B6B5A1CFB689A63FB68DB8F9BB2013B11
:102D90009AB2FB68DA8718E0FEF7CAF80246FB69C8
:102DA000D31A3A689A4203D83B68B3F1FF3F02D185
:102DB0003B68002B09D1FB68012283F85D20FB688A
:102DC000002283F85C2003232DE0FB68DB8F9BB29D
:102DD000002BAED1FA693968F86800F047F903466C
:102DE000002B02D0FB6820221A66FB689B68002B30
:102DF0000AD100237B61FB681B68DB687B61FB6891
:102E00001B689B687B617B69FB68012283F85D20FE
:102E1000FB68002283F85C20FB681B6E002B01D04E
:102E2000012300E0002318462037BD4680BD000086
:102E300080B588B000AFF860B9603B601346FB71A5
:102E4000FEF776F80246BB6A9B1A3A681344FB61A8
:102E5000FEF76EF8B861394B1B685B011B0DFA6910
:102E600002FB03F37B6155E03B68B3F1FF3F51D0B8
:102E7000FEF75EF80246BB69D31AFA699A4202D994
:102E8000FB69002B3DD1FB681B685A68FB681B6817
:102E900022F0E0025A60FB685B68B3F5827F11D1D3
:102EA000FB689B68B3F5004F04D0FB689B68B3F5E3
:102EB000806F07D1FB681B681A68FB681B6822F0EB
:102EC00040021A60FB689B6AB3F5005F0FD1FB6894
:102ED0001B681A68FB681B6822F400521A60FB68C2
:102EE0001B681A68FB681B6842F400521A60FB6892
:102EF000012283F85D20FB68002283F85C20032315
:102F000018E07B69002B02D10023FB6102E07B69A2
:102F1000013B7B61FB681B689A68BB681340BA6819
:102F20009A420CBF01230023DBB21A46FB799A4276
:102F30009AD1002318462037BD4680BD00000020EE
:102F400080B58AB000AFF860B9607A603B6000235A
:102F5000FB75FDF7EDFF02463B6B9B1A3A68134485
:102F60007B62FDF7E5FF3862FB681B680C33FB6191
:102F70003D4B1A6813469B001344DA00D31A1B0D0D
:102F80007A6A02FB03F3BB6161E0BB68B3F5C06F13
:102F900007D17B68002B04D1FB691B78DBB2FB7582
:102FA000FB7D3B68B3F1FF3F51D0FDF7C1FF024607
:102FB0003B6AD31A7A6A9A4202D97B6A002B3DD1C6
:102FC000FB681B685A68FB681B6822F0E0025A60C5
:102FD000FB685B68B3F5827F11D1FB689B68B3F532
:102FE000004F04D0FB689B68B3F5806F07D1FB6886
:102FF0001B681A68FB681B6822F040021A60FB68B5
:103000009B6AB3F5005F0FD1FB681B681A68FB6809
:103010001B6822F400521A60FB681B681A68FB6880
:103020001B6842F400521A60FB68012283F85D209D
:10303000FB68002283F85C20032311E0BB69002BAE
:1030400002D100237B6202E0BB69013BBB61FB68EC
:103050001B689A68BB6813407A689A4295D100232E
:1030600018462837BD4680BD0000002080B586B0D8
:1030700002AFF860B9607A607B680093BB68002299
:103080004FF4C051F868FFF75BFF0346002B07D0F1
:10309000FB681B6E43F02002FB681A66032327E0DF
:1030A0007B680093BB6800228021F868FFF7C0FEB0
:1030B0000346002B07D0FB681B6E43F02002FB6821
:1030C0001A66032314E07B680093BB6800224FF468
:1030D000C061F868FFF734FF0346002B07D0FB6898
:1030E0001B6E43F02002FB681A66032300E00023F6
:1030F00018461037BD4680BD80B582B000AF7860FD
:103100007B68002B01D1012340E07B68DB6F002B43
:1031100006D17B68002283F878207868FDF77EFD71
:103120007B682422DA677B681B681A687B681B68E7
:1031300022F001021A607B685B6A002B02D078687B
:1031400000F052FF786800F0F5FC0346012B01D136
:1031500001231BE07B681B685A687B681B6822F4AC
:1031600090425A607B681B689A687B681B6822F0F3
:103170002A029A607B681B681A687B681B6842F0A9
:1031800001021A60786800F0D1FF0346184608373C
:10319000BD4680BD80B58AB002AFF860B9603B60C3
:1031A0001346FB80FB68DB6F202B40F08180BB68FF
:1031B000002B02D0FB88002B01D1012379E0FB68B2
:1031C0000022C3F88420FB682122DA67FDF7B0FEF5
:1031D0007861FB68FA88A3F85020FB68FA88A3F8A6
:1031E0005220FB689B68B3F5805F08D1FB681B69C0
:1031F000002B04D10023FB61BB68BB6103E0BB680B
:10320000FB610023BB6138E03B6800937B690022CF
:103210008021F86801F032F80346002B04D0FB68E7
:103220002022DA67032344E0FB69002B0BD1BB6942
:103230001B881A46FB681B68C2F308029A62BB69C6
:103240000233BB6107E0FB691A78FB681B689A626E
:10325000FB690133FB61FB68DB6F03F02103212B6A
:1032600009D1FB68B3F852309BB2013B9AB2FB68BC
:10327000A3F8522001E001231BE0FB68B3F85230B1
:103280009BB2002BC0D13B6800937B690022402198
:10329000F86800F0F3FF0346002B04D0FB682022FF
:1032A000DA67032305E0FB682022DA67002300E0E9
:1032B000022318462037BD4680BD000080B58AB085
:1032C00000AFF860B9601346FB80FB68D3F880302C
:1032D000202B37D1BB68002B02D0FB88002B01D1FB
:1032E000012330E0FB6800221A66FB681B68184A5D
:1032F00093421FD0FB681B685B6803F40003002B3C
:1033000018D0FB681B687B617B6953E8003F3B6119
:103310003B6943F080637B62FB681B681A467B6AEB
:103320003B62FA61F9693A6A41E80023BB61BB6913
:10333000002BE6D1FB881A46B968F86801F00CF852
:10334000034600E0022318462837BD4680BD00BF73
:103350000080004080B59AB000AF78607B681B6841
:10336000BB64BB6C53E8003F7B647B6C23F49073BD
:103370007B667B681B681A467B6E7B653A65396D98
:103380007A6D41E80023FB64FB6C002BE6D17B687F
:103390001B6808337B637B6B53E8003F3B633B6BED
:1033A00023F001033B667B681B6808333A6E3A647E
:1033B000FB63F96B3A6C41E80023BB63BB6B002BEA
:1033C000E5D17B681B6E012B18D17B681B683B62C3
:1033D0003B6A53E8003FFB61FB6923F01003FB6588
:1033E0007B681B681A46FB6DFB62BA62B96AFA6AAF
:1033F00041E800237B627B6A002BE6D17B681B6877
:103400009B6803F04003402B4BD17B681B6808335B
:10341000FB60FB6853E8003FBB60BB6823F04003E0
:10342000BB657B681B680833BA6DBA617B617969DB
:10343000BA6941E800233B613B69002BE5D17B6819
:103440005B6F002B13D07B685B6F214A9A637B68AC
:103450005B6F1846FDF7EEFE0346002B32D07B680B
:103460005B6F9B6B7A68526F104698472AE07B68C7
:1034700000225A657B681B680F221A627B681B68F2
:103480009A697B681B6842F008029A617B68202277
:10349000C3F880207B6800221A66786800F034FB4D
:1034A00010E07B6800225A657B681B680F221A6255
:1034B0007B682022C3F880207B6800221A66786827
:1034C00000F022FB002318466837BD4680BD00BFD0
:1034D000C945000880B5BAB000AF78607B681B684A
:1034E000DB69C7F8E4307B681B681B68C7F8E0300D
:1034F0007B681B689B68C7F8DC30D7F8E42040F68F
:103500000F031340C7F8D830D7F8D830002B15D1A7
:10351000D7F8E43003F02003002B0FD0D7F8E030C9
:1035200003F02003002B09D07B689B6E002B00F07A
:10353000CA827B689B6E78689847C4E2D7F8D83017
:10354000002B00F01781D7F8DC3003F00103002BCB
:1035500006D1D7F8E020854B1340002B00F00A81FC
:10356000D7F8E43003F00103002B11D0D7F8E03096
:1035700003F48073002B0BD07B681B6801221A6256
:103580007B68D3F8843043F001027B68C3F8842061
:10359000D7F8E43003F00203002B11D0D7F8DC3069
:1035A00003F00103002B0BD07B681B6802221A6218
:1035B0007B68D3F8843043F004027B68C3F884202E
:1035C000D7F8E43003F00403002B11D0D7F8DC3037
:1035D00003F00103002B0BD07B681B6804221A62E6
:1035E0007B68D3F8843043F002027B68C3F8842000
:1035F000D7F8E43003F00803002B17D0D7F8E030F9
:1036000003F02003002B05D1D7F8DC3003F00103D1
:10361000002B0BD07B681B6808221A627B68D3F8EA
:10362000843043F008027B68C3F88420D7F8E43084
:1036300003F40063002B12D0D7F8E03003F080636E
:10364000002B0CD07B681B684FF400621A627B6809
:10365000D3F8843043F020027B68C3F884207B6871
:10366000D3F88430002B00F03082D7F8E43003F038
:103670002003002B0DD0D7F8E03003F02003002BFF
:1036800007D07B689B6E002B03D07B689B6E7868AD
:1036900098477B68D3F88430C7F8D4307B681B68C0
:1036A0009B6803F04003402B05D0D7F8D43003F0DB
:1036B0002803002B4FD0786800F014FF7B681B684C
:1036C0009B6803F04003402B41D17B681B680833A3
:1036D000C7F89C30D7F89C3053E8003FC7F89830C3
:1036E000D7F8983023F04003C7F8D0307B681B68C8
:1036F0000833D7F8D020C7F8A820C7F8A430D7F8E7
:10370000A410D7F8A82041E80023C7F8A030D7F8C4
:10371000A030002BD9D17B685B6F002B13D07B6866
:103720005B6F134A9A637B685B6F1846FDF782FDF7
:103730000346002B17D07B685B6F9B6B7A68526FD8
:10374000104698470FE0786800F0D4F90BE07868ED
:1037500000F0D0F907E0786800F0CCF97B6800222F
:10376000C3F88420B1E100BFAFE100BF2001000435
:10377000AD4500087B681B6E012B40F06A81D7F8CD
:10378000E43003F01003002B00F06381D7F8E03041
:1037900003F01003002B00F05C817B681B68102293
:1037A0001A627B681B689B6803F04003402B40F063
:1037B000D4807B685B6F1B685B68A7F8BE30B7F886
:1037C000BE30002B00F0AD807B68B3F85830B7F8FE
:1037D000BE209A4280F0A5807B68B7F8BE20A3F88F
:1037E0005A207B685B6F1B681B6803F02003002B6B
:1037F00040F086807B681B68C7F88830D7F888302F
:1038000053E8003FC7F88430D7F8843023F480733E
:10381000C7F8B8307B681B681A46D7F8B830C7F8C5
:103820009430C7F89020D7F89010D7F8942041E84A
:103830000023C7F88C30D7F88C30002BDAD17B68A6
:103840001B6808337B677B6F53E8003F3B673B6F28
:1038500023F00103C7F8B4307B681B680833D7F83E
:10386000B420C7F88020FB67F96FD7F8802041E8C3
:103870000023BB67BB6F002BE1D17B681B6808335B
:103880003B663B6E53E8003FFB65FB6D23F0400356
:10389000C7F8B0307B681B680833D7F8B020FA66E9
:1038A000BB66B96EFA6E41E800237B667B6E002B27
:1038B000E3D17B682022C3F880207B6800221A664F
:1038C0007B681B68FB64FB6C53E8003FBB64BB6C0C
:1038D00023F01003C7F8AC307B681B681A46D7F892
:1038E000AC30BB657A65796DBA6D41E800233B6504
:1038F0003B6D002BE4D17B685B6F1846FDF759FCEC
:103900007B6802225A667B68B3F858207B68B3F85C
:103910005A309BB2D31A9BB21946786800F0FEF871
:10392000D5E07B68B3F85830B7F8BE209A4240F033
:10393000CE807B685B6F1B681B6803F02003202B25
:1039400040F0C5807B6802225A667B68B3F8583025
:103950001946786800F0E2F8B9E07B68B3F85820BF
:103960007B68B3F85A309BB2D31AA7F8CE307B6885
:10397000B3F85A309BB2002B00F0AB80B7F8CE30D2
:10398000002B00F0A6807B681B68BB63BB6B53E811
:10399000003F7B637B6B23F49073C7F8C8307B6870
:1039A0001B681A46D7F8C8307B643A64396C7A6C65
:1039B00041E80023FB63FB6B002BE4D17B681B68B1
:1039C00008337B627B6A53E8003F3B623B6A23F02B
:1039D0000103C7F8C4307B681B680833D7F8C420DC
:1039E0003A63FB62F96A3A6B41E80023BB62BB6A47
:1039F000002BE3D17B682022C3F880207B68002263
:103A00001A667B6800229A667B681B683B613B698B
:103A100053E8003FFB60FB6823F01003C7F8C03099
:103A20007B681B681A46D7F8C030FB61BA61B96978
:103A3000FA6941E800237B617B69002BE4D17B6854
:103A400002225A66B7F8CE301946786800F066F858
:103A50003FE0D7F8E43003F48013002B0ED0D7F802
:103A6000DC3003F48003002B08D07B681B684FF424
:103A700080121A62786800F0ABFF2DE0D7F8E430CE
:103A800003F08003002B0ED0D7F8E03003F0800362
:103A9000002B08D07B68DB6E002B1CD07B68DB6EB4
:103AA0007868984717E0D7F8E43003F04003002B1C
:103AB00012D0D7F8E03003F04003002B0CD0786828
:103AC00000F0A3FD08E000BF06E000BF04E000BF77
:103AD00002E000BF00E000BFE837BD4680BD00BF88
:103AE00080B483B000AF786000BF0C37BD465DF88E
:103AF000047B704780B483B000AF786000BF0C37A0
:103B0000BD465DF8047B704780B483B000AF786039
:103B100000BF0C37BD465DF8047B704780B483B0AE
:103B200000AF78600B467B8000BF0C37BD465DF868
:103B3000047B70472DE9B04F8AB000AFF8600023D6
:103B400087F82230FB689A68FB681B691A43FB6898
:103B50005B691A43FB68DB6913437B62FB681B6884
:103B60001A689E4B1340FA681268796A0B43136017
:103B7000FB681B685B6823F44051FB68DA68FB68EC
:103B80001B680A435A60FB689B697B62FB681B6881
:103B9000934A934204D0FB681B6A7A6A13437B62A0
:103BA000FB681B689B6823F43061FB681B687A6ABA
:103BB0000A439A60FB681B688A4A934226D18A4B63
:103BC000D3F8883003F00303032B1BD801A252F86B
:103BD00023F000BFE53B0008F53B0008ED3B000883
:103BE000FD3B0008012387F82330ABE0022387F870
:103BF0002330A7E0042387F82330A3E0082387F8C5
:103C000023309FE0102387F823309BE0FB681B687C
:103C1000764A934238D1744BD3F8883003F00C03C2
:103C20000C2B2DD801A252F823F000BF613C0008F4
:103C3000813C0008813C0008813C0008713C000880
:103C4000813C0008813C0008813C0008693C000878
:103C5000813C0008813C0008813C0008793C000858
:103C6000002387F823306DE0022387F8233069E0D2
:103C7000042387F8233065E0082387F8233061E0C8
:103C8000102387F823305DE0FB681B68584A934295
:103C900025D1554BD3F8883003F03003302B16D0A4
:103CA000302B18D8202B0AD0202B14D8002B02D070
:103CB000102B08D00FE0002387F8233042E00223C6
:103CC00087F823303EE0042387F823303AE00823C6
:103CD00087F8233036E0102387F8233032E0FB6882
:103CE0001B683F4A93422AD13F4BD3F8883003F4F4
:103CF0004063B3F5406F1AD0B3F5406F1BD8B3F5EE
:103D0000006F0CD0B3F5006F15D8002B03D0B3F5BE
:103D1000806F08D00FE0002387F8233012E00223E1
:103D200087F823300EE0042387F823300AE00823C5
:103D300087F8233006E0102387F8233002E01023B1
:103D400087F82330FB681B68254A934240F08A803D
:103D500097F82330082B24D801A252F823F000BF93
:103D6000853D0008A33D00088D3D0008A33D0008E7
:103D7000933D0008A33D0008A33D0008A33D0008B3
:103D80009B3D0008FEF762FAF86110E0194BFB61F9
:103D90000DE0FEF7C3F9F86109E04FF40043FB6161
:103DA00005E00023FB61012387F8223000BFFB6997
:103DB000002B00F00981FB685A6813465B0013442E
:103DC000FA699A4205D3FB685B681B03FA699A4259
:103DD00012D9012387F82230F6E000BFF369FFEF24
:103DE00000800040003801400010024000440040C4
:103DF000004800400024F400FB6900221C461546E0
:103E00004FF000024FF000032B0243EA146322023A
:103E1000F9684968490800208846814612EB080A7B
:103E200043EB090BFB685B6800223B607A60D7E9D3
:103E3000002350465946FCF723FA02460B46134628
:103E4000BB61BB69B3F5407F08D3BB69B3F5801F85
:103E500004D2FB681B68BA69DA60B5E0012387F811
:103E60002230B1E0FB68DB69B3F5004F5DD197F814
:103E70002330082B27D801A252F823F0A13E0008D6
:103E8000A93E0008B13E0008C73E0008B73E000842
:103E9000C73E0008C73E0008C73E0008BF3E0008F6
:103EA000FEF7D4F9F86114E0FEF7E6F9F86110E0E6
:103EB0004C4BFB610DE0FEF731F9F86109E04FF47E
:103EC0000043FB6105E00023FB61012387F82230FA
:103ED00000BFFB69002B77D0FB695A00FB685B6869
:103EE0005B081A44FB685B68B2FBF3F3BB61BB6918
:103EF0000F2B16D9BB69B3F5803F12D2BB699BB2B9
:103F000023F00F03FB82BB695B089BB203F007033E
:103F10009AB2FB8A1343FB82FB681B68FA8ADA6059
:103F200052E0012387F822304EE097F82330082B27
:103F300027D801A252F823F05D3F0008653F000832
:103F40006D3F0008833F0008733F0008833F00086F
:103F5000833F0008833F00087B3F0008FEF776F9A7
:103F6000F86114E0FEF788F9F86110E01D4BFB6181
:103F70000DE0FEF7D3F8F86109E04FF40043FB6170
:103F800005E00023FB61012387F8223000BFFB69B5
:103F9000002B19D0FB685B685A08FB691A44FB6860
:103FA0005B68B2FBF3F3BB61BB690F2B09D9BB693B
:103FB000B3F5803F05D2BB699AB2FB681B68DA6033
:103FC00002E0012387F82230FB6800229A66FB6832
:103FD0000022DA6697F8223018462837BD46BDE839
:103FE000B08F00BF0024F40080B483B000AF7860CD
:103FF0007B685B6A03F00803002B0AD07B681B68B0
:104000005B6823F400417B685A6B7B681B680A433A
:104010005A607B685B6A03F00103002B0AD07B685F
:104020001B685B6823F400317B689A6A7B681B68B5
:104030000A435A607B685B6A03F00203002B0AD0D4
:104040007B681B685B6823F480317B68DA6A7B6875
:104050001B680A435A607B685B6A03F00403002B09
:104060000AD07B681B685B6823F480217B681A6B2D
:104070007B681B680A435A607B685B6A03F0100325
:10408000002B0AD07B681B689B6823F480517B68F7
:104090009A6B7B681B680A439A607B685B6A03F0D3
:1040A0002003002B0AD07B681B689B6823F4005117
:1040B0007B68DA6B7B681B680A439A607B685B6A83
:1040C00003F04003002B1AD07B681B685B6823F465
:1040D00080117B681A6C7B681B680A435A607B6896
:1040E0001B6CB3F5801F0AD17B681B685B6823F4E7
:1040F000C0017B685A6C7B681B680A435A607B6806
:104100005B6A03F08003002B0AD07B681B685B6846
:1041100023F400217B689A6C7B681B680A435A6011
:1041200000BF0C37BD465DF8047B704780B598B082
:1041300002AF78607B680022C3F88420FCF7F8FEA9
:1041400078657B681B681B6803F00803082B2ED179
:104150006FF07E4300937B6D00224FF4001178686E
:1041600000F08CF80346002B21D07B681B68BB63F2
:10417000BB6B53E8003F7B637B6B23F080033B65A5
:104180007B681B681A463B6D7B643A64396C7A6CB9
:1041900041E80023FB63FB6B002BE6D17B68202208
:1041A000DA677B68002283F87820032362E07B686B
:1041B0001B681B6803F00403042B49D16FF07E4396
:1041C00000937B6D00224FF48001786800F056F870
:1041D0000346002B3CD07B681B687B627B6A53E8FC
:1041E000003F3B623B6A23F49073FB647B681B686F
:1041F0001A46FB6C3B63FA62F96A3A6B41E80023AA
:10420000BB62BB6A002BE6D17B681B6808333B614D
:104210003B6953E8003FFB60FB6823F00103BB648C
:104220007B681B680833BA6CFA61BB61B969FA69CB
:1042300041E800237B617B69002BE5D17B6820226C
:10424000C3F880207B68002283F87820032311E0E4
:104250007B682022DA677B682022C3F880207B6895
:1042600000221A667B6800225A667B68002283F867
:104270007820002318465837BD4680BD80B584B0ED
:1042800000AFF860B9603B601346FB714FE0BB695B
:10429000B3F1FF3F4BD0FCF74BFE02463B68D31A0D
:1042A000BA699A4202D3BB69002B01D103234EE0C5
:1042B000FB681B681B6803F00403002B37D0BB6846
:1042C000802B34D0BB68402B31D0FB681B68DB6986
:1042D00003F00803082B10D1FB681B6808221A6240
:1042E000F86800F0FFF8FB680822C3F88420FB6838
:1042F000002283F87820012329E0FB681B68DB6932
:1043000003F40063B3F5006F11D1FB681B684FF431
:1043100000621A62F86800F0E5F8FB682022C3F832
:104320008420FB68002283F8782003230FE0FB68D9
:104330001B68DA69BB681340BA689A420CBF012354
:104340000023DBB21A46FB799A42A0D0002318461C
:104350001037BD4680BD000080B497B000AFF86054
:10436000B9601346FB80FB68BA685A65FB68FA8837
:10437000A3F85820FB68FA88A3F85A20FB680022AB
:104380009A66FB689B68B3F5805F0ED1FB681B697A
:10439000002B05D1FB6840F2FF12A3F85C202DE052
:1043A000FB68FF22A3F85C2028E0FB689B68002BD9
:1043B0000DD1FB681B69002B04D1FB68FF22A3F819
:1043C0005C201BE0FB687F22A3F85C2016E0FB6802
:1043D0009B68B3F1805F0DD1FB681B69002B04D192
:1043E000FB687F22A3F85C2008E0FB683F22A3F86B
:1043F0005C2003E0FB680022A3F85C20FB6800223D
:10440000C3F88420FB682222C3F88020FB681B6865
:104410000833FB63FB6B53E8003FBB63BB6B43F0AC
:1044200001037B65FB681B6808337A6DBA647B64A3
:10443000796CBA6C41E800233B643B6C002BE5D1FE
:10444000FB689B68B3F5805F07D1FB681B69002B95
:1044500003D1FB68214A9A6602E0FB68204A9A660B
:10446000FB681B69002B19D0FB681B68BB62BB6A29
:1044700053E8003F7B627B6A43F49073FB64FB6804
:104480001B681A46FB6C7B633A63396B7A6B41E8B5
:104490000023FB62FB6A002BE6D118E0FB681B6877
:1044A0007B617B6953E8003F3B613B6943F020033C
:1044B0003B65FB681B681A463B6D3B62FA61F96914
:1044C0003A6A41E80023BB61BB69002BE6D10023B7
:1044D00018465C37BD465DF8047B704719480008F4
:1044E0006146000880B495B000AF78607B681B68B7
:1044F0007B637B6B53E8003F3B633B6B23F4907320
:10450000FB647B681B681A46FB6C3B64FA63F96BBF
:104510003A6C41E80023BB63BB6B002BE6D17B68A0
:104520001B6808333B623B6A53E8003FFB61FB6951
:1045300023F00103BB647B681B680833BA6CFA6222
:10454000BB62B96AFA6A41E800237B627B6A002B8E
:10455000E5D17B681B6E012B18D17B681B68FB6063
:10456000FB6853E8003FBB60BB6823F010037B642B
:104570007B681B681A467B6CBB617A617969BA6992
:1045800041E800233B613B69002BE6D17B68202298
:10459000C3F880207B6800221A667B6800229A6636
:1045A00000BF5437BD465DF8047B704780B584B0CA
:1045B00000AF78607B689B6AFB60F868FFF79AFA47
:1045C00000BF1037BD4680BD80B584B000AF7860B5
:1045D0007B689B6AFB60FB681B680F221A62FB68A2
:1045E0001B689A69FB681B6842F008029A61FB68C5
:1045F0002022C3F88020FB6800221A66F868FFF7C3
:1046000083FA00BF1037BD4680BD80B588B000AFCB
:1046100078607B681B68FB60FB6853E8003FBB6009
:10462000BB6823F04003FB617B681B681A46FB698B
:10463000BB617A617969BA6941E800233B613B69F2
:10464000002BE6D17B682022DA677B680022DA66DD
:104650007868FFF745FA00BF2037BD4680BD0000EF
:1046600080B59CB000AF78607B68B3F85C30A7F889
:104670006E307B68D3F88030222B40F0BE807B68A0
:104680001B685B6AA7F86C30B7F86C30D9B2B7F822
:104690006E30DAB27B685B6D0A40D2B21A707B680A
:1046A0005B6D5A1C7B685A657B68B3F85A309BB2C5
:1046B000013B9AB27B68A3F85A207B68B3F85A3062
:1046C0009BB2002B40F0A1807B681B68FB64FB6CF5
:1046D00053E8003FBB64BB6C23F49073BB667B68FC
:1046E0001B681A46BB6EBB657A65796DBA6D41E889
:1046F00000233B653B6D002BE6D17B681B680833CC
:10470000BB63BB6B53E8003F7B637B6B23F0010310
:104710007B667B681B6808337A6E7A643B64396C0D
:104720007A6C41E80023FB63FB6B002BE5D17B68CF
:104730002022C3F880207B6800229A667B680022D2
:104740005A667B681B68334A93421FD07B681B689C
:104750005B6803F40003002B18D07B681B687B6246
:104760007B6A53E8003F3B623B6A23F080633B6611
:104770007B681B681A463B6E3B63FA62F96A3A6BC8
:1047800041E80023BB62BB6A002BE6D17B681B6E4D
:10479000012B2ED17B6800221A667B681B683B6167
:1047A0003B6953E8003FFB60FB6823F01003FB65A7
:1047B0007B681B681A46FB6DFB61BA61B969FA69CF
:1047C00041E800237B617B69002BE6D17B681B6895
:1047D000DB6903F01003102B03D17B681B681022E8
:1047E0001A627B68B3F8583019467868FFF796F973
:1047F0000BE0786800F0F6F807E07B681B689A69C0
:104800007B681B6842F008029A6100BF7037BD46A2
:1048100080BD00BF0080004080B59CB000AF7860D4
:104820007B68B3F85C30A7F86E307B68D3F88030D3
:10483000222B40F0BE807B681B685B6AA7F86C3057
:104840007B685B6DBB66B7F86C20B7F86E301340C1
:104850009AB2BB6E1A807B685B6D9A1C7B685A6546
:104860007B68B3F85A309BB2013B9AB27B68A3F8DD
:104870005A207B68B3F85A309BB2002B40F0A180DD
:104880007B681B68BB64BB6C53E8003F7B647B6C3C
:1048900023F490737B667B681B681A467B6E7B658E
:1048A0003A65396D7A6D41E80023FB64FB6C002B9F
:1048B000E6D17B681B6808337B637B6B53E8003F62
:1048C0003B633B6B23F001033B667B681B6808334B
:1048D0003A6E3A64FB63F96B3A6C41E80023BB63C0
:1048E000BB6B002BE5D17B682022C3F880207B685E
:1048F00000229A667B6800225A667B681B68334AEE
:1049000093421FD07B681B685B6803F40003002B95
:1049100018D07B681B683B623B6A53E8003FFB6131
:10492000FB6923F08063FB657B681B681A46FB6D9F
:10493000FB62BA62B96AFA6A41E800237B627B6A69
:10494000002BE6D17B681B6E012B2ED17B680022E9
:104950001A667B681B68FB60FB6853E8003FBB601E
:10496000BB6823F01003BB657B681B681A46BB6DF0
:10497000BB617A617969BA6941E800233B613B69AF
:10498000002BE6D17B681B68DB6903F01003102B5A
:1049900003D17B681B6810221A627B68B3F8583019
:1049A00019467868FFF7BAF80BE0786800F01AF853
:1049B00007E07B681B689A697B681B6842F0080205
:1049C0009A6100BF7037BD4680BD00BF00800040C7
:1049D00080B483B000AF786000BF0C37BD465DF88F
:1049E000047B704780B582B000AF78607B681B683D
:1049F0000B4A934203D10B4803F084FB0BE07B6826
:104A00001B68094A934206D1084B93F84230194675
:104A1000064803F06DFC00BF0837BD4680BD00BFEF
:104A200000480040EC02002000380140FC03002058
:104A300080B483B000AF0346FB71124B1B78132B7D
:104A400019D8114B1B781946104AFB7953540E4B59
:104A50001B780133DAB20C4B1A700B4B1B78132BFB
:104A600002D9094B00221A70064B1B780133DAB2C7
:104A7000044B1A7000E000BF0C37BD465DF8047BA4
:104A8000704700BFEA020020E9020020D4020020A3
:104A900080B483B000AF7860134B1B78002B01D13A
:104AA00000231AE0114B1B7819467B68104A525CB0
:104AB0001A700E4B1B780133DAB20C4B1A700B4B89
:104AC0001B78132B02D9094B00221A70064B1B7856
:104AD000013BDAB2044B1A70012318460C37BD466D
:104AE0005DF8047B704700BFEA020020E802002066
:104AF000D402002080B584B000AF0346FB71FB797F
:104B0000013B072B00F29C8001A252F823F000BF6A
:104B1000314B0008394B0008414B0008494B000855
:104B2000714B0008BD4B0008C54B0008334C000812
:104B3000464801F0D3F884E0444801F0EEF880E004
:104B4000424801F0DBF87CE0414B1B78002B06D19A
:104B5000404B1B8819463D4801F0EFF871E03E4B91
:104B60001B7801339BB21946384801F0FFF868E022
:104B70003A4B1B7807EE903AB8EEE77A374B5B7802
:104B800007EE903AF8EEE77ADFED356A67EEA67A3F
:104B900037EE277A314B9B7807EE903AF8EEE77ABA
:104BA000DFED306A67EEA67A77EE277AC7ED027AF4
:104BB00097ED020A254801F027F942E0234801F069
:104BC0000FF93EE0284B5B7807EE903AF8EEE77A73
:104BD0009FED267A27EE877A234B9B7807EE903A53
:104BE000F8EEE77AF2EE046A67EEA67A37EE277AF5
:104BF0001D4BDB7807EE903AF8EEE77A77EE277AEE
:104C0000C7ED037A184B1B78002B0CD0D7ED037A35
:104C1000F5EE407AF1EE10FA05D0D7ED037AF1EE19
:104C2000677AC7ED037A97ED030A084801F0C5F8E3
:104C300007E00F4B1B781946044801F0A8F800E084
:104C400000BF00BF1037BD4680BD00BFEC02002092
:104C5000850500203E000020400000204400002088
:104C6000CDCCCC3D0AD7233C8C0500200000C842A7
:104C70009405002080B582B000AF0346FB71344B31
:104C8000B3F80231042B01D800235CE0304BB3F8B9
:104C9000023119462F4803F001F80346002B01D1D9
:104CA000002350E02A4B9B78012B01D000234AE0DF
:104CB000FB79013B072B45D801A252F823F000BF36
:104CC000E14C0008FD4C0008194D0008354D000866
:104CD000354D0008354D0008354D0008354D0008AC
:104CE0001B4BDB78032B01D000232CE0184B1B79E6
:104CF0000C2B01D0002326E0012324E0144BDB78A9
:104D0000032B01D000231EE0114B1B79082B01D08F
:104D1000002318E0012316E00D4BDB78032B01D0B4
:104D2000002310E00A4B1B79022B01D000230AE07C
:104D3000012308E0064BDB78102B01D0002302E0B2
:104D4000012300E0002318460837BD4680BD00BFA0
:104D5000EC020020EE02002080B582B000AF6B4B69
:104D60001B78002B00F0A980694B93F80C31002BC5
:104D700000F08280664B002283F80C21654B1B7883
:104D80001846FFF777FF0346002B14D1604B002233
:104D9000A3F802215D4B00221A705E4B1B78032B97
:104DA00040F2AA805C4B03221A70FCF7C1F803465C
:104DB0005A4A1360A0E0564BDB78032B48D1554B81
:104DC0001B78012B1ED10021514801F030F8F0EE84
:104DD000407A534BC3ED007A02214D4801F027F889
:104DE000F0EE407A4F4BC3ED007A0421484801F0C1
:104DF0001EF8F0EE407A4C4BC3ED007A4B4B01228B
:104E00001A7025E0434B1B78022B12D10021404839
:104E100001F00DF8F0EE407A454BC3ED007A022127
:104E20003B4801F004F8F0EE407A424BC3ED007AC3
:104E30000EE0384B1B78032B0AD10021344801F0D7
:104E400008F80346DAB23C4B1A70384B01221A704C
:104E50002F4B0022A3F802212C4B00221A702D4B5D
:104E60001B78032B4AD92C4B02221A70FCF760F8EE
:104E700003462A4A136041E0FCF75AF802462F4BDA
:104E80001B68D31AB3F5FA7F3AD3204B00221A706D
:104E90001F4B0022A3F802211D4B002283F80C2196
:104EA0001C4B1B78032B2BD91B4B03221A70FCF7CE
:104EB0003FF80346194A136022E03B1D1846FFF7EE
:104EC000E7FD0346002B1DD03A79124B1A70114BA7
:104ED0001B781846FFF70EFE0C4B01221A70FCF7E8
:104EE00027F80346154A13600A4B1B78032B0AD98F
:104EF000094B01221A7006E000BF04E000BF02E087
:104F000000BF00E000BF0837BD4680BDC9020020D9
:104F1000EC020020EB020020C8020020D00200209A
:104F2000480500204C050020500500203C000020D2
:104F3000540500205805002096050020CC020020D2
:104F400080B586B000AF0346FB717B4803F052F991
:104F50007A4803F0F4F9FFF7FFFEFBF7E9FF02469A
:104F6000774B1B68D31AB3F57A7F07D3FBF7E0FFC3
:104F70000346734A13600120FFF75AFDFBF7D8FF81
:104F80000246704B1B68D31A42F20F72934207D944
:104F9000FBF7CEFF03466B4A13600220FFF748FD84
:104FA000694BD3ED007AB0EE670A0221634803F043
:104FB000CAFA664BD3ED007AB0EE670A04215F4867
:104FC00003F0C1FA624B5B7807EE903AF8EEE77AAD
:104FD0009FED607A27EE877A5D4B9B7807EE903ADB
:104FE000F8EEE77AF2EE046A67EEA67A37EE277AF1
:104FF000574BDB7807EE903AF8EEE77A77EE277AB0
:10500000C7ED057A524B1B78002B0CD0D7ED057AF3
:10501000F5EE407AF1EE10FA05D0D7ED057AF1EE13
:10502000677AC7ED057A4C4B1B7807EE903AB8EEDD
:10503000E77A494B5B7807EE903AF8EEE77ADFEDD6
:10504000476A67EEA67A37EE277A434B9B7807EEDE
:10505000903AF8EEE77ADFED426A67EEA67A77EEED
:10506000277AC7ED047A3F4B1B7807EE903AB8EEEB
:10507000E77A3C4B5B7807EE903AF8EEE77ADFEDA3
:10508000376A67EEA67A37EE277A364B9B7807EEBB
:10509000903AF8EEE77ADFED326A67EEA67A77EEBD
:1050A000277AC7ED037A304B1B78012B1AD1FBF717
:1050B0003FFF02462D4B1B68D31ABB60BB68C72B52
:1050C00006D801224FF400512948FCF787FA0FE077
:1050D000254B02221A7000224FF400512448FCF79D
:1050E0007DFA05E000224FF400512148FCF776FAE2
:1050F00097ED050A0621114803F025FA1D4B1B7890
:10510000002B14BF01230023DBB21A460D210B48EC
:1051100003F041FA97ED040A0E21084803F013FA50
:1051200097ED030A1021054803F00DFA00231846F5
:105130001837BD4680BD00BFEC020020FC030020F4
:105140006405002068050020480500205005002067
:105150008C0500200000C8424C000020CDCCCC3D86
:105160000AD7233C500000205C0500206005002089
:10517000000800484800002080B582B000AF034618
:10518000FB7100F077FE5C4B1B78002B60D001F0C8
:10519000BDFF594B1B78012B0ED1584A14210A2010
:1051A00002F010FC564B00221A7000224FF40051FE
:1051B0005448FCF713FA27E04F4B1B78022B11D110
:1051C000514A14210A2002F0FDFB4D4B1B78002BA5
:1051D0001AD14B4B01221A70FBF7AAFE03464B4A29
:1051E000136011E0444B1B78032B0DD1484A142166
:1051F0000A2002F0E7FB424B00221A7000224FF413
:1052000000514048FCF7EAF93B4B1B78012B1DD0BD
:10521000404B1B68002B04D1FBF78AFE03463D4A36
:105220001360FBF785FE02463A4B1B68D31AB3F5B1
:105230007A7F0BD3304B00221A70364B00221A6053
:105240002F4B00221A70344B02221A7000234FE0B9
:10525000304B00221A60304B1A78304B1B789A4240
:1052600006D02F4B01221A702B4B1A782B4B1A7039
:10527000294B1B78082B37D801A252F823F000BF26
:10528000A5520008B9520008BF520008C5520008D4
:10529000CB520008D1520008D7520008DD52000856
:1052A000E35200081E4B1B78002B1FD000F002FEBB
:1052B0001B4B00221A7019E000F0FAFF17E001F012
:1052C00065F814E001F0D8F811E001F075F90EE08E
:1052D00001F07CFA0BE001F069FB08E001F070FCE2
:1052E00005E001F0F1FC02E000BF00E000BF002398
:1052F00018460837BD4680BDC8020020FC8F000854
:105300005C050020000800480890000860050020A7
:10531000109000086C050020700500207805002022
:105320003C00002080B582B000AF0346FB71202115
:105330002548FCF73BF90346002B0AD100BF20218A
:105340002148FCF733F90346002BF8D000F096F81B
:1053500034E002211D48FCF729F90346002B0AD14D
:1053600000BF02211948FCF721F90346002BF8D0B1
:1053700000F0EAFA22E004211448FCF717F903468A
:10538000002B0AD100BF04211048FCF70FF9034697
:10539000002BF8D000F092F910E001210B48FCF747
:1053A00005F90346002B09D100BF01210748FCF78E
:1053B000FDF80346002BF8D000F00EFC0023184641
:1053C0000837BD4680BD00BF000800480004004803
:1053D00090B583B000AF0023FB7136E0FB791F4A24
:1053E0001B01134401331B78012B2BD1FB791B4A82
:1053F0001B01134404331B68002B11D0FBF798FDED
:105400000246FB7915491B010B4404331B68D21A71
:10541000FB7912491B010B4408331B689A4211D3D4
:10542000FC79FBF785FD02460C4923010B4404334C
:105430001A60FB79094A1B0113440C331B68FA7983
:1054400010469847FB790133FB71FB79022BC5D9D4
:10545000002318460C37BD4690BD00BF0C0000204D
:1054600080B582B000AF0346FB71FB791846FFF7A9
:10547000DFFA00BF0837BD4680BD000080B500AF31
:105480007A4B1B78072B00F2E88001A252F823F038
:10549000B1540008B9540008075500081555000814
:1054A0003355000883550008BB55000835560008E1
:1054B0006E4B01221A70D7E06D4B93F90030032B2D
:1054C00017D16B4B00221A7004226A496A4803F014
:1054D000EBF80346002B03D1644B02221A7002E062
:1054E000624B00221A7004220021634803F0ECF89A
:1054F000BAE05F4B93F90030DBB20133DBB25AB252
:105500005B4B1A70B0E05D4B1B780333DAB2574B3C
:105510001A70A9E05A4B1B78002B03D1584B01227B
:105520001A70A1E0564B00221A700420FFF798FF72
:105530009AE0544B1B78002B03D10620FFF790FF15
:105540008DE0514B1B78002B06D14F4B01221A7076
:105550004E4B00221A7082E04C4B93F90030DBB2C4
:105560000133DBB25AB2494B1A70484B93F9003001
:10557000022B74DD444B00221A700520FFF770FFE8
:105580006DE0434B1B78002B06D1414B01221A7072
:10559000404B00221A7064E03E4B1B780133DAB2B4
:1055A0003C4B1A703B4B1B78032B5AD9384B0022CB
:1055B0001A700720FFF754FF53E0374B1B78002B7E
:1055C0001AD1364B1B78002B0FD1354B1B7883F04B
:1055D0000103DAB2324B1A70324B02221A70FBF717
:1055E000A7FC0346304A13603DE02B4B01221A70A2
:1055F0002E4B00221A7036E0284B1B78012B03D06B
:10560000264B1B78022B2ED1284B1B780133DAB2A4
:10561000264B1A70254B1B78022B24D91E4B0022D7
:105620001A70204B02221A70FBF782FC03461E4AB6
:10563000136018E01E4B1B78002B03D11C4B01227A
:105640001A7011E01A4B00221A700820FFF708FFA9
:10565000184B1A78184B1A7006E000BF04E000BF20
:1056600002E000BF00E000BF00BF80BD7005002069
:1056700084050020800500207C05002071050020A5
:105680008605002087050020880500208905002068
:105690008B05002090050020920500209105002038
:1056A00048000020C8020020D002002093050020FE
:1056B00095050020940500209605002080B400AFD9
:1056C0008A4B1B78012B09D1894B93F90030894A09
:1056D000D25C0132D1B2874AD15401E1834B1B78AD
:1056E000022B0ED1844B1B78002B03D1824B052259
:1056F0001A70F5E0804B1B78013BDAB27E4B1A70D2
:10570000EEE07A4B1B78032B2DD17C4B1B78002BC2
:1057100021D07B4B1B78002B0ED17A4B1B88013399
:105720009AB2784B1A80774B1B88F72B40F2D880BF
:10573000744B01221A80D3E0734B1B780133DAB229
:10574000714B1A70704B1B78082B40F2C9806E4B5E
:1057500000221A70C4E06A4B1B7883F00103DAB2AE
:10576000674B1A70BCE0614B1B78042B25D1674B4B
:105770001B78002B19D0664B93F90030654AD25C38
:105780000132D1B2634AD154614B93F900301A46C9
:10579000604B9B5C092B40F2A3805D4B93F900307A
:1057A0001A465C4B002199549AE05B4B1B7883F0BE
:1057B0000103DAB2584B1A7092E04C4B1B78052B60
:1057C00026D1564B1B78002B00F08A80544B1B7857
:1057D000002B07D1534B1B7883F00103DAB2514BF6
:1057E0001A707DE04E4B1B784E4AD25C0132D1B22A
:1057F0004C4AD1544A4B1B781A464A4B9B5C092BA6
:105800006ED9474B1B781A46464B0021995467E0E6
:10581000364B1B78062B4ED1434B1B78002B3BD0CD
:10582000424B1B78002B07D1414B1B7883F00103BF
:10583000DAB23F4B1A7053E03C4B1B78012B15D169
:105840003C4B1B783C4AD25C0132D1B23A4AD1542B
:10585000384B1B781A46384B9B5C092B40D9354B8B
:105860001B781A46344B0021995439E0314B1B7890
:10587000324AD25C0132D1B2304AD1542D4B1B781E
:105880001A462E4B9B5C092B2AD92A4B1B781A46A9
:105890002A4B0021995423E0244B1B78002B03D181
:1058A000224B02221A701BE0204B1B78013BDAB21C
:1058B0001E4B1A7014E00D4B1B78072B10D1204B98
:1058C0001B78002B0CD01F4B1B780133DAB21D4B19
:1058D0001A701C4B1B78072B02D91A4B00221A7026
:1058E00000BFBD465DF8047B704700BF7005002017
:1058F000840500207C05002071050020860500201D
:10590000850500203E000020400000208805002082
:105910008905002044000020870500208B05002019
:10592000900500208C0500209205002091050020A4
:1059300048000020930500204C000020500000206B
:10594000950500209405002080B400AF8B4B1B7898
:10595000012B09D18A4B93F900308A4AD25C013A73
:10596000D1B2884AD15404E1844B1B78022B0ED16A
:10597000854B1B780133DAB2834B1A70824B1B784C
:10598000052B40F2F680804B00221A70F1E07B4B31
:105990001B78032B2DD17D4B1B78002B21D07C4B0A
:1059A0001B78002B0ED17B4B1B88012B03D1794B2D
:1059B000F7221A80DDE0774B1B88013B9AB2754BCA
:1059C0001A80D6E0744B1B78002B03D1724B08224F
:1059D0001A70CEE0704B1B78013BDAB26E4B1A7036
:1059E000C7E06B4B1B7883F00103DAB2684B1A7087
:1059F000BFE0624B1B78042B25D1684B1B78002B32
:105A000019D0674B93F900301A46664B9B5C002B0C
:105A100007D1634B93F900301A46624B0921995420
:105A2000A7E05F4B93F900305E4AD25C013AD1B2F5
:105A30005C4AD1549DE05C4B1B7883F00103DAB2E1
:105A4000594B1A7095E04D4B1B78052B27D1574BBE
:105A50001B78002B00F08D80554B1B78002B07D155
:105A6000544B1B7883F00103DAB2524B1A7080E07A
:105A70004F4B1B781A464F4B9B5C002B06D14C4B6F
:105A80001B781A464B4B0921995472E0484B1B78FE
:105A9000484AD25C013AD1B2464AD15469E0374B08
:105AA0001B78062B4FD1444B1B78002B3DD0434B2A
:105AB0001B78002B07D1424B1B7883F00103DAB22D
:105AC0003F4B1A7055E03D4B1B78012B16D13D4BD7
:105AD0001B781A463C4B9B5C002B06D1394B1B783C
