:020000040800F2
:1000000000C00020A10E0008D9090008E10900087D
:10001000E9090008F1090008F909000800000000DA
:10002000000000000000000000000000010A0008BD
:100030000F0A0008000000001D0A00082D0A000831
:10004000F10E0008F10E0008F10E0008F10E000894
:10005000F10E0008F10E0008F10E0008F10E000884
:10006000F10E0008F10E0008F10E0008F10E000874
:10007000F10E0008F10E0008F10E0008F10E000864
:10008000F10E0008F10E0008F10E0008F10E000854
:10009000F10E0008F10E0008F10E0008F10E000844
:1000A000F10E0008F10E0008F10E0008F10E000834
:1000B000F10E00080000000000000000F10E000832
:1000C000F10E0008F10E0008F10E0008F10E000814
:1000D000F10E0008490A0008F10E00085D0A000848
:1000E000F10E0008F10E0008000000000000000002
:1000F0000000000000000000000000000000000000
:1001000000000000F10E000800000000F10E0008E1
:100110000000000000000000F10E0008F10E0008D1
:10012000F10E0008F10E0008F10E0008F10E0008B3
:10013000F10E0008000000000000000000000000B8
:10014000F10E0008F10E0008F10E0008F10E000893
:10015000F10E0008F10E0008F10E0008F10E000883
:10016000F10E0008F10E0008F10E0008000000007A
:10017000F10E0008F10E0008F10E0008000000006A
:0C018000F10E0008F10E0008F10E00085E
:1001900010B5054C237833B9044B13B10448AFF3C1
:1001A00000800123237010BDA80000200000000083
:1001B000BC99000808B5034B1BB103490348AFF3D2
:1001C000008008BD00000000AC000020BC990008C1
:1001D000034613F8012B002AFBD1181A0138704787
:1001E00001F0FF01102A2BDB10F0070F08D010F8E8
:1001F000013B013A8B422DD010F0070F42B3F6D1EC
:10020000F0B441EA012141EA014122F007047FF004
:1002100000070023F0E80256083C85EA010586EA5B
:10022000010685FA47F5A3FA87F586FA47F6A5FA97
:1002300087F68EB9EED1F0BC01F0FF0102F00702A3
:1002400032B110F8013B013A83EA010313B1F8D14E
:100250000020704701387047002D06BF354603382F
:10026000073815F0010F07D1013015F4807F02BF68
:10027000013015F4C03F0130F0BC0138704700BFB9
:1002800053B94AB9002908BF00281CBF4FF0FF31FD
:100290004FF0FF3000F088B9ADF1080C6DE904CEE5
:1002A00000F006F8DDF804E0DDE9022304B0704751
:1002B0002DE9F047089D0F4604468C46002B48D197
:1002C0008A42164661D9B2FA82F34BB1C3F12002D9
:1002D00001FA03FC20FA02F29E4042EA0C0C9C4018
:1002E0004FEA164EB7B2BCFBFEF1220C0EFB11CC4E
:1002F00042EA0C4201FB07F0904209D9B21801F121
:10030000FF3C80F0EE80904240F2EB8002393244B4
:10031000121AA4B2B2FBFEF00EFB102244EA024411
:1003200000FB07F7A74209D9341900F1FF3280F02A
:10033000DA80A74240F2D7803444023840EA0140D4
:10034000E41B00211DB1DC400023C5E90043BDE8EA
:10035000F0878B4206D90DB1C5E90001002108469E
:10036000BDE8F087B3FA83F1002948D1BB4202D33C
:10037000824200F20781841A67EB0302012094464F
:10038000002DE4D0C5E9004CE1E7002A00F092809E
:10039000B2FA82F3002B40F0A8808A1A4FEA164E78
:1003A0001FFA86FC0121200CB2FBFEF70EFB172280
:1003B00040EA02420CFB07F0904207D9B21807F15D
:1003C000FF3802D2904200F2E2804746121AA4B2ED
:1003D000B2FBFEF00EFB102244EA02440CFB00FCD0
:1003E000A44507D9341900F1FF3202D2A44500F226
:1003F000CB801046A4EB0C0440EA0740A2E7C1F111
:1004000020068B4022FA06FC4CEA030C07FA01F4A2
:1004100020FA06F3F7404FEA1C49234300FA01F89B
:100420001FFA8CFEB7FBF9F01C0C09FB107744EAAD
:10043000074400FB0EF7A74202FA01F20AD91CEBAF
:10044000040400F1FF3A80F09B80A74240F29880BC
:1004500002386444E41B9FB2B4FBF9F309FB134474
:1004600047EA044403FB0EFEA64509D91CEB04042D
:1004700003F1FF3780F08280A6457FD9023B6444B8
:1004800043EA0040A4EB0E04A0FB02E7BC42734623
:10049000B94663D360D05DB1B8EB030264EB0904E5
:1004A00004FA06F622FA01F31E43CC40C5E90064C3
:1004B00000214CE76208480842EAC1710B0C43EA8C
:1004C00000438AB242EA0342B3FBF6F1E407B446C2
:1004D0003746B6461F23B0FBF6F0D21B41EA004177
:1004E00061E7614614E7104628E7C3F1200120FACE
:1004F00001F29E4027FA01F19F403A434FEA164E1F
:100500001FFA86FCB1FBFEF70EFB1710110C41EA37
:10051000004107FB0CF8884504FA03F43AD9711836
:1005200007F1FF3001D288451FD8A1EB0801B1FBCC
:10053000FEF808FB0CF70EFB181192B242EA0142DA
:10054000BA422FD2B21808F1FF31C6D2BA42C4D291
:10055000A8F102013244C0E7F0459CD2BEEB020391
:1005600067EB0C070138B94695E7A6EB080841444C
:10057000B81EB1FBFEF808FB0CF7DCE73B467FE753
:10058000504667E70846FBE63444023832E7023F4C
:1005900032441BE7A1EB08013846B1FBFEF808FB2B
:1005A0000CF7C8E7414698E7704700BF80B58AB0AE
:1005B00000AF07F1140300221A605A609A60DA60F3
:1005C0001A615C4BDB6C5B4A43F00403D364594B08
:1005D000DB6C03F004033B613B69564BDB6C554A13
:1005E00043F00103D364534BDB6C03F00103FB6066
:1005F000FB68504BDB6C4F4A43F00203D3644D4B16
:10060000DB6C03F00203BB60BB684A4BDB6C494AFE
:1006100043F00803D364474BDB6C03F008037B60B3
:100620007B68002243F2DB31434801F02DF90022C0
:1006300041F2FF714FF0904001F026F900220421B1
:100640003E4801F021F9002238213D4801F01CF913
:1006500043F2DB337B610123BB610023FB61002399
:100660003B6207F114031946334800F0A1FE04234E
:100670007B614FF48813BB610023FB6107F1140316
:1006800019462D4800F094FE41F2FF737B6101236F
:10069000BB610023FB6100233B6207F11403194691
:1006A0004FF0904000F084FE20237B610023BB616B
:1006B0000123FB6107F1140319461F4800F078FE7F
:1006C00007237B610023BB610123FB6107F1140356
:1006D00019461B4800F06CFE4FF400637B61002359
:1006E000BB610023FB6107F1140319464FF09040F2
:1006F00000F05EFE04237B610123BB610023FB61EC
:1007000000233B6207F1140319460C4800F050FE29
:1007100038237B610123BB610023FB6100233B6223
:1007200007F114031946064800F042FE00BF2837BF
:10073000BD4680BD0010024000080048000C004883
:100740000004004880B500AF00F0D3FB00F036F89D
:10075000FFF72CFF00F09AF800F0FEF900F02CFAF9
:1007600000F0CEF9322000F039FC06F085FF07F0EA
:100770004BFD012201210D4808F02FF80122002134
:100780000B4808F041F9012208210A4801F07CF8E1
:1007900001220421084801F077F8012210210548C0
:1007A00001F072F805F09AF8FCE700BFF0020020B3
:1007B0000004002000040048000C004880B596B0FA
:1007C00000AF07F1140344220021184608F068FC2A
:1007D0003B4600221A605A609A60DA601A614FF450
:1007E000007001F087F80346002B01D000F048F8B4
:1007F00001F062F8214BD3F89030204A23F018031F
:10080000C2F8903014237B610123FB610123FB625A
:1008100000233B6360237B630223FB6301233B6470
:1008200001237B642823BB640723FB6402233B650D
:1008300002237B6507F11403184601F0B1F8034663
:10084000002B01D000F01CF80F233B6003237B60DA
:100850000023BB600023FB6000233B613B46042177
:10086000184601F0B1FC0346002B01D000F008F857
:1008700002F018F900BF5837BD4680BD0010024095
:1008800080B400AF72B600BF00BFFDE780B500AF17
:100890001B4B1C4A1A601A4B4FF482725A60184B59
:1008A00000229A60164B4FF4E062DA60144B00228B
:1008B0001A61134B00225A61114B4FF400729A6176
:1008C0000F4B0022DA610E4B00221A620C4B002201
:1008D0005A620B4B00229A62094B0722DA62084BDC
:1008E00000221A63064B08225A63054802F0DCF91D
:1008F0000346002B01D0FFF7C3FF00BF80BD00BF40
:10090000C40000200038004080B58AB000AF786095
:1009100007F1140300221A605A609A60DA601A61C3
:100920007B681B68174A934228D1174B9B6D164A68
:1009300043F480439365144B9B6D03F480433B6108
:100940003B69114BDB6C104A43F00203D3640E4B3E
:10095000DB6C03F00203FB60FB684FF460437B61D8
:100960000223BB610023FB6103233B6205237B62FF
:1009700007F114031946054800F01AFD00BF283797
:10098000BD4680BD00380040001002400004004811
:1009900080B483B000AF0F4B1B6E0E4A43F00103CF
:1009A00013660C4B1B6E03F001037B607B68094BE5
:1009B0009B6D084A43F080539365064B9B6D03F093
:1009C00080533B603B6800BF0C37BD465DF8047B3D
:1009D000704700BF0010024080B400AF00BFFDE7C9
:1009E00080B400AF00BFFDE780B400AF00BFFDE7FB
:1009F00080B400AF00BFFDE780B400AF00BFFDE7EB
:100A000080B400AF00BFBD465DF8047B704780B482
:100A100000AF00BFBD465DF8047B704780B400AFF7
:100A200000BFBD465DF8047B7047000080B500AF95
:100A300000F0B4FA034B1B680133024A136000BF95
:100A400080BD00BF2801002080B500AF024802F041
:100A5000D3FE00BF80BD00BFB801002080B500AF4D
:100A6000024802F0C9FE00BF80BD00BF4002002066
:100A700080B586B000AF7860144A154BD31A7B61FD
:100A80007B693B61134B1B68002B02D1114B124A4F
:100A90001A60104B1A687B6813443A699A4207D26D
:100AA00008F006FB03460C221A604FF0FF3309E002
:100AB000084B1B68FB60074B1A687B681344054AA8
:100AC0001360FB6818461837BD4680BD00C0002083
:100AD000000400002C010020180B002080B400AF9F
:100AE000064BD3F88830054A43F47003C2F88830C7
:100AF00000BFBD465DF8047B704700BF00ED00E01D
:100B000080B500AF124B134A1A60114B4FF4E1321B
:100B10005A600F4B00229A600D4B0022DA600C4B9A
:100B200000221A610A4B0C225A61094B00229A6179
:100B3000074B00221A62064B00225A62044802F058
:100B400031FC0346002B01D0FFF79AFE00BF80BDA9
:100B5000300100200080004080B500AF144B154AE2
:100B60001A60134B4FF416525A60114B00229A60D0
:100B70000F4B0022DA600E4B00221A610C4B0C2244
:100B80005A610B4B00229A61094B0022DA61084B33
:100B900000221A62064B00225A62054802F002FC4B
:100BA0000346002B01D0FFF76BFE00BF80BD00BFE6
:100BB000B80100200038014080B500AF144B154A41
:100BC0001A60134B4FF416525A60114B00229A6070
:100BD0000F4B0022DA600E4B00221A610C4B0C22E4
:100BE0005A610B4B00229A61094B0022DA61084BD3
:100BF00000221A62064B00225A62054802F0D2FB1C
:100C00000346002B01D0FFF73BFE00BF80BD00BFB5
:100C1000400200200048004080B5A6B000AF7860D8
:100C200007F1840300221A605A609A60DA601A6140
:100C300007F1240360220021184608F031FA7B688E
:100C40001B686B4A93423CD120237B6200233B65A7
:100C500007F12403184601F0DBFC0346002B01D00A
:100C6000FFF70EFE634BDB6D624A43F00103D36571
:100C7000604BDB6D03F001033B623B6A5D4BDB6C59
:100C80005C4A43F00203D3645A4BDB6C03F002036B
:100C9000FB61FB694FF44063C7F884300223C7F857
:100CA00088300023C7F88C300323C7F8903008231E
:100CB000C7F8943007F1840319464F4800F078FBD9
:100CC00091E07B681B684D4A934243D101237B62CC
:100CD00000237B6407F12403184601F099FC0346C6
:100CE000002B01D0FFF7CCFD424B1B6E414A43F471
:100CF000804313663F4B1B6E03F48043BB61BB69AB
:100D00003C4BDB6C3B4A43F00203D364394BDB6C56
:100D100003F002037B617B69C023C7F884300223A0
:100D2000C7F888300023C7F88C300323C7F8903009
:100D30000723C7F8943007F1840319462E4800F0C2
:100D400037FB00220021252000F06BFA252000F05F
:100D500084FA48E07B681B68294A934243D1042304
:100D60007B620023FB6407F12403184601F050FC6A
:100D70000346002B01D0FFF783FD1E4B9B6D1D4AE0
:100D800043F4802393651B4B9B6D03F480233B61ED
:100D90003B69184BDB6C174A43F00403D364154BD3
:100DA000DB6C03F00403FB60FB684FF44063C7F89F
:100DB00084300223C7F888300023C7F88C3003231F
:100DC000C7F890300723C7F8943007F18403194619
:100DD0000C4800F0EDFA00220021272000F021FA53
:100DE000272000F03AFA00BF9837BD4680BD00BF0B
:100DF000008000400010024000040048003801401C
:100E0000004800400008004880B582B000AF78601C
:100E10007B681B681C4A93420BD11C4BDB6D1B4A41
:100E200023F00103D3654FF44061194800F03AFC08
:100E300025E07B681B68174A93420DD1134B1B6E4C
:100E4000124A23F480431366C021114800F02AFCA3
:100E5000252000F010FA12E07B681B680E4A9342CE
:100E60000DD10A4B9B6D094A23F4802393654FF4FF
:100E700040610A4800F016FC272000F0FCF900BF92
:100E80000837BD4680BD00BF008000400010024012
:100E900000040048003801400048004000080048B5
:100EA000DFF834D0FFF71AFE0C480D490D4A002335
:100EB00002E0D458C4500433C4188C42F9D30A4A0F
:100EC0000A4C002301E013600432A242FBD308F075
:100ED000F5F8FFF737FCFEE700C000200000002017
:100EE000A8000020D4A00008A8000020140B0020B7
:100EF000FEE780B582B000AF0023FB71032000F055
:100F000085F90F2000F00EF80346002B02D00123D4
:100F1000FB7101E0FFF73CFDFB7918460837BD4641
:100F200080BD000080B584B000AF78600023FB7303
:100F3000174B1B78002B23D0164B1A68144B1B78C9
:100F400019464FF47A73B3FBF1F3B2FBF3F318468F
:100F500000F09FF90346002B0FD17B680F2B09D8B7
:100F6000002279684FF0FF3000F05BF90A4A7B6895
:100F7000136007E00123FB7304E00123FB7301E02E
:100F80000123FB73FB7B18461037BD4680BD00BFB5
:100F900008000020000000200400002080B400AF02
:100FA000064B1B781A46064B1B681344044A136011
:100FB00000BFBD465DF8047B704700BF08000020FD
:100FC000C802002080B400AF034B1B681846BD4622
:100FD0005DF8047B704700BFC802002080B584B074
:100FE00000AF7860FFF7EEFFB8607B68FB60FB68DE
:100FF000B3F1FF3F05D00A4B1B781A46FB68134438
:10100000FB6000BFFFF7DEFF0246BB68D31AFA6839
:101010009A42F7D800BF00BF1037BD4680BD00BF61
:101020000800002080B485B000AF78607B6803F0D2
:101030000703FB600C4BDB68BB60BA684FF6FF032D
:101040001340BB60FB681A02BB68134343F0BF63E5
:1010500043F40033BB60044ABB68D36000BF14375D
:10106000BD465DF8047B704700ED00E080B400AF42
:10107000044BDB681B0A03F007031846BD465DF806
:10108000047B704700ED00E080B483B000AF0346FE
:10109000FB7197F90730002B0BDBFB7903F01F0284
:1010A000074997F907305B09012000FA02F241F87D
:1010B000232000BF0C37BD465DF8047B704700BF9E
:1010C00000E100E080B483B000AF0346FB7197F904
:1010D0000730002B12DBFB7903F01F020A4997F956
:1010E00007305B09012000FA02F2203341F8232087
:1010F000BFF34F8F00BFBFF36F8F00BF00BF0C3730
:10110000BD465DF8047B704700E100E080B483B029
:1011100000AF03463960FB7197F90730002B0ADBFB
:101120003B68DAB20C4997F907301201D2B20B448E
:1011300083F800230AE03B68DAB20849FB7903F040
:101140000F03043B1201D2B20B441A7600BF0C37D6
:10115000BD465DF8047B704700E100E000ED00E073
:1011600080B489B000AFF860B9607A60FB6803F0C2
:101170000703FB61FB69C3F10703042B28BF0423AA
:10118000BB61FB690433062B02D9FB69033B00E01A
:1011900000237B614FF0FF32BB6902FA03F3DA43AD
:1011A000BB681A407B699A404FF0FF317B6901FAB6
:1011B00003F3D9437B680B40134318462437BD46DD
:1011C0005DF8047B7047000080B582B000AF7860A6
:1011D0007B68013BB3F1807F01D301230FE00A4A12
:1011E0007B68013B53600F214FF0FF30FFF78EFF0C
:1011F000054B00229A60044B07221A600023184610
:101200000837BD4680BD00BF10E000E080B582B069
:1012100000AF78607868FFF705FF00BF0837BD466C
:1012200080BD80B586B000AF0346B9607A60FB73BD
:1012300000237B61FFF71AFF78617A68B9687869E3
:10124000FFF78EFF024697F90F3011461846FFF759
:101250005DFF00BF1837BD4680BD80B582B000AFCE
:101260000346FB7197F907301846FFF70DFF00BFE3
:101270000837BD4680BD80B582B000AF0346FB7124
:1012800097F907301846FFF71DFF00BF0837BD4626
:1012900080BD80B582B000AF78607868FFF794FFBA
:1012A000034618460837BD4680BD80B483B000AF02
:1012B00078607B68002B01D1012331E07B6893F8D3
:1012C0002530DBB2022B08D07B680422DA637B680E
:1012D000002283F82420012322E07B681B681A681F
:1012E0007B681B6822F001021A607B681B681A6821
:1012F0007B681B6822F00E021A607B685B6C03F04F
:101300001C027B681B6C012101FA02F25A607B68A7
:10131000012283F825207B68002283F82420002303
:1013200018460C37BD465DF8047B704780B584B025
:1013300000AF78600023FB737B6893F82530DBB245
:10134000022B05D07B680422DA630123FB7329E0BA
:101350007B681B681A687B681B6822F001021A60B0
:101360007B681B681A687B681B6822F00E021A6093
:101370007B685B6C03F01C027B681B6C012101FA2B
:1013800002F25A607B68012283F825207B680022E4
:1013900083F824207B689B6B002B03D07B689B6BBE
:1013A00078689847FB7B18461037BD4680BD000023
:1013B00080B487B000AF7860396000237B6154E16E
:1013C0003B681A6801217B6901FA03F31340FB6053
:1013D000FB68002B00F046813B685B6803F0030369
:1013E000012B05D03B685B6803F00303022B30D16F
:1013F0007B689B683B617B695B00032202FA03F315
:10140000DB433A6913403B613B68DA687B695B0008
:1014100002FA03F33A6913433B617B683A699A60C5
:101420007B685B683B6101227B6902FA03F3DB4363
:101430003A6913403B613B685B681B0903F001029A
:101440007B6902FA03F33A6913433B617B683A69AB
:101450005A603B685B6803F00303032B17D07B687B
:10146000DB683B617B695B00032202FA03F3DB4329
:101470003A6913403B613B689A687B695B0002FAFA
:1014800003F33A6913433B617B683A69DA603B686E
:101490005B6803F00303022B23D17B69DA087B68C6
:1014A000083253F822303B617B6903F007039B004D
:1014B0000F2202FA03F3DB433A6913403B613B68B6
:1014C0001A697B6903F007039B0002FA03F33A6988
:1014D00013433B617B69DA087B680832396943F85A
:1014E00022107B681B683B617B695B00032202FA68
:1014F00003F3DB433A6913403B613B685B6803F0ED
:1015000003027B695B0002FA03F33A6913433B6110
:101510007B683A691A603B685B6803F44033002BD0
:1015200000F0A080584B1B6E574A43F0010313662E
:10153000554B1B6E03F00103BB60BB68534A7B69CC
:101540009B08023352F823303B617B6903F00303AD
:101550009B000F2202FA03F3DB433A6913403B611D
:101560007B68B3F1904F19D07B68494A934213D0FE
:101570007B68484A93420DD07B68474A934207D024
:101580007B68464A934201D1042308E0072306E022
:10159000032304E0022302E0012300E000237A6930
:1015A00002F00302920093403A6913433B613749CA
:1015B0007B699B0802333A6941F82320384B9B68CA
:1015C0003B61FB68DB433A6913403B613B685B6806
:1015D00003F48013002B03D03A69FB6813433B618B
:1015E0002F4A3B6993602E4BDB683B61FB68DB4312
:1015F0003A6913403B613B685B6803F40013002BBE
:1016000003D03A69FB6813433B61254A3B69D360C9
:10161000234B5B683B61FB68DB433A6913403B61EA
:101620003B685B6803F40033002B03D03A69FB6826
:1016300013433B611A4A3B695360194B1B683B617A
:10164000FB68DB433A6913403B613B685B6803F42A
:101650008033002B03D03A69FB6813433B61104A87
:101660003B6913607B6901337B613B681A687B6966
:1016700022FA03F3002B7FF4A3AE00BF00BF1C3798
:10168000BD465DF8047B7047001002400000014039
:101690000004004800080048000C00480010004802
:1016A0000004014080B487B000AF78603960002347
:1016B0007B61B7E001227B6902FA03F33A681340C9
:1016C0003B613B69002B00F0AA805D4A7B699B0867
:1016D000023352F82330FB607B6903F003039B0065
:1016E0000F2202FA03F3FA681340FB607B68B3F140
:1016F000904F19D07B68534A934213D07B68524A6B
:1017000093420DD07B68514A934207D07B68504A80
:10171000934201D1042308E0072306E0032304E0F9
:10172000022302E0012300E000237A6902F00302B1
:1017300092009340FA689A4232D1464B1A683B694C
:10174000DB43444913400B60424B5A683B69DB431F
:10175000404913404B603F4BDA683B69DB433D49EE
:101760001340CB603B4B9A683B69DB4339491340DC
:101770008B607B6903F003039B000F2202FA03F3E3
:10178000FB602F4A7B699B08023352F82310FB68E9
:10179000DA432B487B699B080A40023340F8232038
:1017A0007B681A687B695B00032101FA03F31A4323
:1017B0007B681A607B69DA087B68083253F822106C
:1017C0007B6903F007039B000F2202FA03F3DB435C
:1017D0007A69D20819407B68083243F822107B6886
:1017E0009A687B695B00032101FA03F3DB431A402B
:1017F0007B689A607B685A6801217B6901FA03F370
:10180000DB431A407B685A607B68DA687B695B005F
:10181000032101FA03F3DB431A407B68DA607B693A
:1018200001337B613A687B6922FA03F3002B7FF472
:1018300041AF00BF00BF1C37BD465DF8047B704759
:10184000000001400004004800080048000C004867
:10185000001000480004014080B485B000AF7860FB
:101860000B467B807B681A697B881340002B02D073
:101870000123FB7301E00023FB73FB7B1846143745
:10188000BD465DF8047B704780B483B000AF7860DC
:101890000B467B8013467B707B78002B03D07A88C5
:1018A0007B689A6102E07A887B689A6200BF0C3795
:1018B000BD465DF8047B704780B400AF054B1B68E4
:1018C000044A43F48073136000BFBD465DF8047B97
:1018D000704700BF0070004080B400AF044B1B682D
:1018E00003F4C0631846BD465DF8047B704700BF33
:1018F0000070004080B485B000AF78607B68B3F5BD
:10190000007F30D1234B1B6803F4C063B3F5007F25
:1019100038D0204B1B6823F4C0631E4A43F4007385
:1019200013601D4B1B68322202FB03F31B4AA2FB10
:1019300003239B0C0133FB6002E0FB68013BFB606F
:10194000144B5B6903F48063B3F5806F02D1FB68CD
:10195000002BF2D10F4B5B6903F48063B3F5806F0A
:1019600010D103230FE00B4B1B6803F4C063B3F5E6
:10197000806F07D0074B1B6823F4C063054A43F40C
:1019800080631360002318461437BD465DF8047B5E
:10199000704700BF007000400000002083DE1B4342
:1019A00080B588B000AF78607B68002B02D101233E
:1019B00000F002BC964B9B6803F00C03BB61944B98
:1019C000DB6803F003037B617B681B6803F0100393
:1019D000002B00F0E480BB69002B07D0BB690C2B07
:1019E00040F08B807B69012B40F08780884B1B681F
:1019F00003F00203002B05D07B689B69002B01D10B
:101A00000123D9E37B681A6A814B1B6803F0080342
:101A1000002B04D07E4B1B6803F0F00305E07C4BE9
:101A2000D3F894301B0903F0F003934223D27B6870
:101A30001B6A184600F08CFD0346002B01D00123E1
:101A4000BAE3734B1B68724A43F008031360704B90
:101A50001B6823F0F0027B681B6A6D4913430B601F
:101A60006B4B5B6823F47F427B68DB691B02684930
:101A700013434B6025E0664B1B68654A43F008033F
:101A80001360634B1B6823F0F0027B681B6A60499C
:101A900013430B605E4B5B6823F47F427B68DB691A
:101AA0001B025B4913434B60BB69002B09D17B6868
:101AB0001B6A184600F04CFD0346002B01D00123A1
:101AC0007AE300F081FC0246514B9B681B0903F04E
:101AD0000F035049CB5C03F01F0322FA03F34E4A75
:101AE00013604E4B1B681846FFF71CFA0346FB7346
:101AF000FB7B002B52D0FB7B5EE37B689B69002B5A
:101B000032D0434B1B68424A43F001031360FFF796
:101B100059FA386108E0FFF755FA02463B69D31AD3
:101B2000022B01D9032347E3394B1B6803F002035F
:101B3000002BF0D0364B1B68354A43F00803136086
:101B4000334B1B6823F0F0027B681B6A3049134358
:101B50000B602F4B5B6823F47F427B68DB691B02C1
:101B60002B4913434B601AE0294B1B68284A23F08A
:101B700001031360FFF726FA386108E0FFF722FA45
:101B800002463B69D31A022B01D9032314E3204BED
:101B90001B6803F00203002BF0D100E000BF7B685C
:101BA0001B6803F00103002B73D0BB69082B05D021
:101BB000BB690C2B0ED17B69032B0BD1144B1B681B
:101BC00003F40033002B63D07B685B68002B5FD18C
:101BD0000123F1E27B685B68B3F5803F06D10C4BD3
:101BE0001B680B4A43F48033136025E07B685B6815
:101BF000B3F5A02F14D1064B1B68054A43F480238C
:101C00001360034B1B68024A43F48033136013E0F4
:101C100000100240E09B00080000002004000020AB
:101C2000A04B1B689F4A23F4803313609D4B1B68B5
:101C30009C4A23F4802313607B685B68002B13D0DD
:101C4000FFF7C0F9386108E0FFF7BCF902463B69CD
:101C5000D31A642B01D90323AEE2924B1B6803F421
:101C60000033002BF0D014E0FFF7ACF9386108E046
:101C7000FFF7A8F902463B69D31A642B01D9032365
:101C80009AE2884B1B6803F40033002BF0D100E08C
:101C900000BF7B681B6803F00203002B60D0BB69A8
:101CA000042B05D0BB690C2B19D17B69022B16D1F3
:101CB0007C4B1B6803F48063002B05D07B68DB68DA
:101CC000002B01D1012377E2764B5B6823F0F852B9
:101CD0007B681B691B06734913434B6040E07B68BC
:101CE000DB68002B23D06F4B1B686E4A43F4807374
:101CF0001360FFF767F9386108E0FFF763F9024600
:101D00003B69D31A022B01D9032355E2654B1B68AB
:101D100003F48063002BF0D0624B5B6823F0F85231
:101D20007B681B691B065F4913434B6018E05D4BE2
:101D30001B685C4A23F480731360FFF743F9386132
:101D400008E0FFF73FF902463B69D31A022B01D99D
:101D5000032331E2534B1B6803F48063002BF0D163
:101D60007B681B6803F00803002B3CD07B685B6931
:101D7000002B1CD04B4BD3F894304A4A43F001035C
:101D8000C2F89430FFF71EF9386108E0FFF71AF93E
:101D900002463B69D31A022B01D903230CE2414BC3
:101DA000D3F8943003F00203002BEFD01BE03D4B3F
:101DB000D3F894303B4A23F00103C2F89430FFF784
:101DC00001F9386108E0FFF7FDF802463B69D31AD4
:101DD000022B01D90323EFE1324BD3F8943003F007
:101DE0000203002BEFD17B681B6803F00403002B78
:101DF00000F0A6800023FB772A4B9B6D03F08053F5
:101E0000002B0DD1274B9B6D264A43F080539365E1
:101E1000244B9B6D03F08053BB60BB680123FB77B1
:101E2000214B1B6803F48073002B18D11E4B1B68D9
:101E30001D4A43F480731360FFF7C4F8386108E06B
:101E4000FFF7C0F802463B69D31A022B01D90323DE
:101E5000B2E1154B1B6803F48073002BF0D07B6854
:101E60009B68012B08D10F4BD3F890300D4A43F0FB
:101E70000103C2F8903029E07B689B68052B15D1DF
:101E8000084BD3F89030074A43F00403C2F890306F
:101E9000044BD3F89030034A43F00103C2F890306A
:101EA00014E000BF00100240007000409A4BD3F8CD
:101EB0009030994A23F00103C2F89030964BD3F842
:101EC0009030954A23F00403C2F890307B689B68F9
:101ED000002B16D0FFF776F838610AE0FFF772F8AA
:101EE00002463B69D31A41F28832934201D9032357
:101EF00062E1894BD3F8903003F00203002BEDD060
:101F000015E0FFF75FF838610AE0FFF75BF802467B
:101F10003B69D31A41F28832934201D903234BE142
:101F20007D4BD3F8903003F00203002BEDD1FB7F03
:101F3000012B05D1784B9B6D774A23F08053936535
:101F40007B681B6803F02003002B3CD07B685B6A36
:101F5000002B1CD0704BD3F898306F4A43F001032C
:101F6000C2F89830FFF72EF8386108E0FFF72AF83A
:101F700002463B69D31A022B01D903231CE1664BAD
:101F8000D3F8983003F00203002BEFD01BE0624B34
:101F9000D3F89830604A23F00103C2F89830FFF775
:101FA00011F8386108E0FFF70DF802463B69D31AD3
:101FB000022B01D90323FFE0574BD3F8983003F0ED
:101FC0000203002BEFD17B689B6A002B00F0F380AB
:101FD0007B689B6A022B40F0C9804F4BDB687B61BA
:101FE0007B6903F003027B68DB6A9A422CD17B6930
:101FF00003F070027B681B6B013B1B019A4223D1EB
:102000007B6903F4FE427B685B6B1B029A421BD127
:102010007B6903F078427B689B6BDB069A4213D1A5
:102020007B6903F4C0027B68DB6B5B08013B5B05EB
:102030009A4209D17B6903F0C0627B681B6C5B0824
:10204000013B5B069A426BD0BB690C2B62D0324BD2
:102050001B6803F08063002B01D00123ACE02E4B02
:102060001B682D4A23F080731360FEF7ABFF3861C5
:1020700008E0FEF7A7FF02463B69D31A022B01D9FD
:10208000032399E0244B1B6803F00073002BF0D16D
:10209000214BDA68214B13407A68D16A7A68126B57
:1020A000013A120111437A68526B120211437A68A5
:1020B000D26B5208013A520511437A68126C5208E9
:1020C000013A520611437A68926BD2060A431249CA
:1020D0001343CB60104B1B680F4A43F080731360AF
:1020E0000D4BDB680C4A43F08073D360FEF76AFF48
:1020F000386108E0FEF766FF02463B69D31A022BFF
:1021000001D9032358E0044B1B6803F00073002B34
:10211000F0D050E001234FE0001002408C809D0180
:10212000274B1B6803F00073002B44D1244B1B6822
:10213000234A43F080731360214BDB68204A43F04D
:102140008073D360FEF73EFF386108E0FEF73AFF88
:1021500002463B69D31A022B01D903232CE0184B0A
:102160001B6803F00073002BF0D024E0BB690C2B3C
:102170001FD0134B1B68124A23F080731360FEF7C5
:1021800021FF386108E0FEF71DFF02463B69D31AC4
:10219000022B01D903230FE0094B1B6803F00073E6
:1021A000002BF0D1064BDA680549064B1340CB6093
:1021B00001E0012300E0002318462037BD4680BD22
:1021C00000100240FCFFEEFE80B584B000AF7860E6
:1021D00039607B68002B01D10123E7E0754B1B6858
:1021E00003F007033A689A4210D9724B1B6823F038
:1021F000070270493B6813430B606E4B1B6803F08A
:1022000007033A689A4201D00123CFE07B681B683C
:1022100003F00203002B10D07B689A68664B9B6822
:1022200003F0F0039A4208D9634B9B6823F0F00255
:102230007B689B68604913438B607B681B6803F075
:102240000103002B4CD07B685B68032B07D15A4BF2
:102250001B6803F00073002B21D10123A6E07B68EB
:102260005B68022B07D1544B1B6803F40033002B2F
:1022700015D101239AE07B685B68002B07D14E4B98
:102280001B6803F00203002B09D101238EE04A4BA7
:102290001B6803F48063002B01D1012386E0464BC9
:1022A0009B6823F003027B685B68434913438B60A0
:1022B000FEF788FEF8600AE0FEF784FE0246FB683F
:1022C000D31A41F28832934201D903236EE03A4B8C
:1022D0009B6803F00C027B685B689B009A42EBD121
:1022E0007B681B6803F00203002B10D07B689A68A0
:1022F000314B9B6803F0F0039A4208D22E4B9B6847
:1023000023F0F0027B689B682B4913438B60294BB9
:102310001B6803F007033A689A4210D2254B1B68EA
:1023200023F0070223493B6813430B60214B1B68D2
:1023300003F007033A689A4201D0012336E07B6834
:102340001B6803F00403002B08D01B4B9B6823F48D
:10235000E0627B68DB68184913438B607B681B680D
:1023600003F00803002B09D0134B9B6823F4605241
:102370007B681B69DB00104913438B6000F024F875
:1023800002460D4B9B681B0903F00F030B49CB5C06
:1023900003F01F0322FA03F3094A1360094B1B6879
:1023A0001846FEF7BFFD0346FB72FB7A184610374E
:1023B000BD4680BD0020024000100240E09B0008A6
:1023C000000000200400002080B489B000AF00238A
:1023D000FB610023BB613E4B9B6803F00C033B6138
:1023E0003B4BDB6803F00303FB603B69002B05D02C
:1023F0003B690C2B21D1FB68012B1ED1344B1B6890
:1024000003F00803002B07D1314BD3F894301B0A9B
:1024100003F00F03FB6105E02D4B1B681B0903F064
:102420000F03FB612B4AFB6952F82330FB613B69C8
:10243000002B0DD1FB69BB610AE03B69042B02D183
:10244000254BBB6104E03B69082B01D1234BBB61E9
:102450003B690C2B34D11E4BDB6803F00303BB60DC
:10246000BB68022B03D0BB68032B03D005E01A4BDB
:102470007B6105E0194B7B6102E0FB697B6100BF7A
:10248000134BDB681B0903F0070301337B60104B20
:10249000DB681B0A03F07F037A6903FB02F27B68A7
:1024A000B2FBF3F37B610A4BDB685B0E03F00303C3
:1024B00001335B003B607A693B68B2FBF3F3BB61BD
:1024C000BB6918462437BD465DF8047B704700BFE2
:1024D00000100240F89B00080024F40000127A006B
:1024E00080B400AF034B1B681846BD465DF8047B03
:1024F000704700BF0000002080B500AFFFF7F0FF7D
:102500000246064B9B681B0A03F007030449CB5C99
:1025100003F01F0322FA03F3184680BD00100240A7
:10252000F09B000880B500AFFFF7DAFF0246064BCC
:102530009B68DB0A03F007030449CB5C03F01F032D
:1025400022FA03F3184680BD00100240F09B0008F9
:1025500080B586B000AF786000233B612A4B9B6D4D
:1025600003F08053002B03D0FFF7B6F9786114E035
:10257000254B9B6D244A43F080539365224B9B6D02
:1025800003F08053FB60FB68FFF7A6F978611E4BF0
:102590009B6D1D4A23F0805393657B69B3F5007FE3
:1025A0000BD17B68802B19D97B68A02B02D9022321
:1025B0003B6113E001233B6110E07B68802B02D973
:1025C00003233B610AE07B68802B02D102233B613D
:1025D00004E07B68702B01D101233B610B4B1B682E
:1025E00023F0070209493B6913430B60074B1B6843
:1025F00003F007033A699A4201D0012300E0002367
:1026000018461837BD4680BD001002400020024029
:1026100080B586B000AF78600023FB740023BB74E4
:102620007B681B6803F40063002B31D07B685B6C14
:10263000B3F5400F1AD0B3F5400F14D8002B09D0D2
:10264000B3F5000F0FD15D4BDB685C4A43F4803378
:10265000D3600CE07B6804330021184600F032FAA6
:102660000346FB7403E00123FB7400E000BFFB7C26
:10267000002B0BD1514BD3F8883023F440027B68F8
:102680005B6C4E491343C1F8883001E0FB7CBB749E
:102690007B681B6803F40033002B00F09E8000234E
:1026A0007B74464B9B6D03F08053002B01D10123BB
:1026B00000E00023002B0DD0404B9B6D3F4A43F0C0
:1026C000805393653D4B9B6D03F08053BB60BB68AB
:1026D00001237B743A4B1B68394A43F480731360BF
:1026E000FEF770FCF86009E0FEF76CFC0246FB6840
:1026F000D31A022B02D90323FB7405E0304B1B686D
:1027000003F48073002BEFD0FB7C002B5AD12B4BB2
:10271000D3F8903003F440737B617B69002B1ED0AB
:102720007B68DB6D7A699A4219D0244BD3F89030DC
:1027300023F440737B61214BD3F890301F4A43F45C
:102740008033C2F890301D4BD3F890301B4A23F4ED
:102750008033C2F89030194A7B69C2F890307B69A7
:1027600003F00103002B16D0FEF72CFCF8600BE001
:10277000FEF728FC0246FB68D31A41F288329342E6
:1027800002D90323FB7406E00C4BD3F8903003F01E
:102790000203002BECD0FB7C002B0BD1074BD3F8B2
:1027A000903023F440727B68DB6D04491343C1F819
:1027B000903009E0FB7CBB7406E000BF00100240D3
:1027C00000700040FB7CBB747B7C012B05D18D4BE2
:1027D0009B6D8C4A23F0805393657B681B6803F0E4
:1027E0000103002B0AD0874BD3F8883023F0030273
:1027F0007B681B6A83491343C1F888307B681B6878
:1028000003F00203002B0AD07E4BD3F8883023F06C
:102810000C027B685B6A7B491343C1F888307B6894
:102820001B6803F00403002B0AD0764BD3F88830E2
:1028300023F030027B689B6A72491343C1F88830E9
:102840007B681B6803F02003002B0AD06D4BD3F884
:10285000883023F440627B68DB6A6A491343C1F81D
:1028600088307B681B6803F40073002B0AD0654B2B
:10287000D3F8883023F440227B68DB6B6149134333
:10288000C1F888307B681B6803F48063002B0AD092
:102890005C4BD3F8883023F440127B681B6C594999
:1028A0001343C1F888307B681B6803F04003002B9A
:1028B0000AD0544BD3F8883023F440527B681B6B0A
:1028C00050491343C1F888307B681B6803F08003CC
:1028D000002B0AD04B4BD3F8883023F440427B685E
:1028E0005B6B48491343C1F888307B681B6803F46D
:1028F0008073002B0AD0434BD3F8883023F4403246
:102900007B689B6B3F491343C1F888307B681B6829
:1029100003F40053002B28D03A4BD3F8883023F02F
:1029200040627B689B6C37491343C1F888307B68F1
:102930009B6CB3F1006F06D1324BDB68314A43F434
:102940008013D36011E07B689B6CB3F1806F0CD176
:102950007B6804330121184600F0B4F80346FB7489
:10296000FB7C002B01D0FB7CBB747B681B6803F4F1
:102970000023002B28D0234BD3F8883023F040626B
:102980007B68DB6C1F491343C1F888307B68DB6CC4
:10299000B3F1006F06D11B4BDB681A4A43F4801376
:1029A000D36011E07B68DB6CB3F1806F0CD17B6886
:1029B00004330121184600F085F80346FB74FB7CC4
:1029C000002B01D0FB7CBB747B681B6803F4802365
:1029D000002B2BD00B4BD3F8883023F040627B6860
:1029E0001B6D08491343C1F888307B681B6DB3F138
:1029F000006F09D1034BDB68024A43F48013D360B4
:102A000014E000BF001002407B681B6DB3F1806FC3
:102A10000CD17B6804330121184600F053F80346BB
:102A2000FB74FB7C002B01D0FB7CBB747B681B68B8
:102A300003F48043002B1CD0194BD3F8883023F0CB
:102A400040527B685B6D16491343C1F888307B6840
:102A50005B6DB3F1805F0CD17B68043302211846B3
:102A600000F030F80346FB74FB7C002B01D0FB7CAC
:102A7000BB747B681B6803F40043002B0AD0084B2F
:102A8000D3F8883023F080427B689B6D0449134360
:102A9000C1F88830BB7C18461837BD4680BD00BFE2
:102AA0000010024080B400AF054B1B68044A43F09D
:102AB0000403136000BFBD465DF8047B704700BF90
:102AC0000010024080B584B000AF78603960002308
:102AD000FB73744BDB6803F00303002B18D0714BBE
:102AE000DB6803F003027B681B689A420DD17B68A8
:102AF0001B68002B09D06B4BDB681B0903F0070335
:102B00005A1C7B685B689A4247D00123FB7344E000
:102B10007B681B68032B18D0032B25D8012B02D010
:102B2000022B09D020E05F4B1B6803F00203002B4F
:102B30001DD10123FB731AE05A4B1B6803F4806319
:102B4000002B16D10123FB7313E0564B1B6803F4D3
:102B50000033002B0FD1534B1B6803F48023002B51
:102B600009D10123FB7306E00123FB7304E000BFDE
:102B700002E000BF00E000BFFB7B002B0DD1494B02
:102B8000DB6823F073027B6819687B685B68013B34
:102B90001B010B4343491343CB60FB7B002B7CD1D0
:102BA000404B1B683F4A23F080631360FEF70AFA2C
:102BB000B86009E0FEF706FA0246BB68D31A022B9A
:102BC00002D90323FB7305E0364B1B6803F0006357
:102BD000002BEFD1FB7B002B5FD13B68002B10D18A
:102BE000304B1B6923F0784323F4FE437A689268E4
:102BF00011027A68D268D2060A432A4913430B614C
:102C000027E03B68012B12D1264B1B6923F4C0033C
:102C100023F4FE437A68926811027A6812695208B6
:102C2000013A52050A431F4913430B6111E01D4B42
:102C30001B6923F0C06323F4FE437A689268110293
:102C40007A6852695208013A52060A4315491343F9
:102C50000B61144B1B68134A43F080631360FEF74B
:102C6000B1F9B86009E0FEF7ADF90246BB68D31AC6
:102C7000022B02D90323FB7305E00A4B1B6803F008
:102C80000063002BEFD0FB7B002B06D1054B1A69AC
:102C90007B689B69034913430B61FB7B1846103724
:102CA000BD4680BD0010024080B584B000AF7860A2
:102CB0007B68002B01D1012395E07B685B6A002BC8
:102CC00008D17B685B68B3F5827F09D07B680022FE
:102CD000DA6105E07B6800221A617B6800225A6194
:102CE0007B6800229A627B6893F85D30DBB2002B30
:102CF00006D17B68002283F85C207868FDF704FE2B
:102D00007B68022283F85D207B681B681A687B68F9
:102D10001B6822F040021A607B68DB68B3F5E06F45
:102D200002D90023FB6002E04FF48053FB607B6814
:102D3000DB68B3F5706F07D07B68DB68B3F5E06FD5
:102D400002D07B6800229A627B685B6803F482721F
:102D50007B689B6803F404431A437B681B6903F098
:102D600002031A437B685B6903F001031A437B6823
:102D70009B6903F400731A437B68DB6903F0380333
:102D80001A437B681B6A03F0800342EA03017B68F5
:102D90009B6A03F400527B681B680A431A607B68D5
:102DA0009B691B0C03F004027B685B6A03F0100351
:102DB0001A437B685B6B03F008031A437B68DB688C
:102DC00003F4706342EA0301FB6803F480527B68FA
:102DD0001B680A435A607B6800221A667B680122DE
:102DE00083F85D20002318461037BD4680BD80B5AE
:102DF00088B000AFF860B9603B601346FB80FEF717
:102E0000E1F8F861FB887B83FB6893F85D30DBB207
:102E1000012B01D002235CE1BB68002B02D0FB88B0
:102E2000002B01D1012354E1FB6893F85C30012BA6
:102E300001D102234DE1FB68012283F85C20FB688D
:102E4000032283F85D20FB6800221A66FB68BA68DB
:102E50009A63FB68FA889A87FB68FA88DA87FB68C6
:102E600000221A64FB680022A3F84420FB680022B9
:102E7000A3F84620FB6800221A65FB680022DA648A
:102E8000FB689B68B3F5004F0FD1FB681B681A689D
:102E9000FB681B6822F040021A60FB681B681A6816
:102EA000FB681B6842F480421A60FB681B681B6861
:102EB00003F04003402B07D0FB681B681A68FB68CF
:102EC0001B6842F040021A60FB68DB68B3F5E06FF4
:102ED00052D9FB685B68002B02D07B8B012B45D15C
:102EE000FB689B6B1A88FB681B68DA60FB689B6B4E
:102EF0009A1CFB689A63FB68DB8F9BB2013B9AB21A
:102F0000FB68DA8732E0FB681B689B6803F002030A
:102F1000022B12D1FB689B6B1A88FB681B68DA6076
:102F2000FB689B6B9A1CFB689A63FB68DB8F9BB208
:102F3000013B9AB2FB68DA8718E0FEF743F80246D5
:102F4000FB69D31A3A689A4203D83B68B3F1FF3F52
:102F500002D13B68002B09D1FB68012283F85D2078
:102F6000FB68002283F85C200323B2E0FB68DB8F60
:102F70009BB2002BC7D183E0FB685B68002B02D0BB
:102F80007B8B012B77D1FB68DB8F9BB2012B12D996
:102F9000FB689B6B1A88FB681B68DA60FB689B6B9D
:102FA0009A1CFB689A63FB68DB8F9BB2023B9AB268
:102FB000FB68DA875FE0FB689A6BFB681B680C3381
:102FC00012781A70FB689B6B5A1CFB689A63FB684B
:102FD000DB8F9BB2013B9AB2FB68DA874BE0FB6860
:102FE0001B689B6803F00203022B2BD1FB68DB8F6D
:102FF0009BB2012B12D9FB689B6B1A88FB681B687C
:10300000DA60FB689B6B9A1CFB689A63FB68DB8F3A
:103010009BB2023B9AB2FB68DA872CE0FB689A6BA2
:10302000FB681B680C3312781A70FB689B6B5A1C88
:10303000FB689A63FB68DB8F9BB2013B9AB2FB682B
:10304000DA8718E0FDF7BEFF0246FB69D31A3A683B
:103050009A4203D83B68B3F1FF3F02D13B68002B93
:1030600009D1FB68012283F85D20FB68002283F808
:103070005C2003232DE0FB68DB8F9BB2002BAED1DD
:10308000FA693968F86800F047F90346002B02D066
:10309000FB6820221A66FB689B68002B0AD100237C
:1030A0007B61FB681B68DB687B61FB681B689B6856
:1030B0007B617B69FB68012283F85D20FB6800224D
:1030C00083F85C20FB681B6E002B01D0012300E01D
:1030D000002318462037BD4680BD000080B588B06B
:1030E00000AFF860B9603B601346FB71FDF76AFF03
:1030F0000246BB6A9B1A3A681344FB61FDF762FF04
:10310000B861394B1B685B011B0DFA6902FB03F3C5
:103110007B6155E03B68B3F1FF3F51D0FDF752FFB3
:103120000246BB69D31AFA699A4202D9FB69002B9D
:103130003DD1FB681B685A68FB681B6822F0E002FF
:103140005A60FB685B68B3F5827F11D1FB689B68AE
:10315000B3F5004F04D0FB689B68B3F5806F07D1CF
:10316000FB681B681A68FB681B6822F040021A6043
:10317000FB689B6AB3F5005F0FD1FB681B681A6898
:10318000FB681B6822F400521A60FB681B681A680F
:10319000FB681B6842F400521A60FB68012283F846
:1031A0005D20FB68002283F85C20032318E07B6924
:1031B000002B02D10023FB6102E07B69013B7B61B4
:1031C000FB681B689A68BB681340BA689A420CBFD8
:1031D00001230023DBB21A46FB799A429AD10023DD
:1031E00018462037BD4680BD0000002080B58AB05B
:1031F00000AFF860B9607A603B600023FB75FDF7B3
:10320000E1FE02463B6B9B1A3A6813447B62FDF772
:10321000D9FE3862FB681B680C33FB613D4B1A68B2
:1032200013469B001344DA00D31A1B0D7A6A02FB83
:1032300003F3BB6161E0BB68B3F5C06F07D17B6886
:10324000002B04D1FB691B78DBB2FB75FB7D3B686F
:10325000B3F1FF3F51D0FDF7B5FE02463B6AD31AEA
:103260007A6A9A4202D97B6A002B3DD1FB681B68BF
:103270005A68FB681B6822F0E0025A60FB685B68D2
:10328000B3F5827F11D1FB689B68B3F5004F04D082
:10329000FB689B68B3F5806F07D1FB681B681A68F1
:1032A000FB681B6822F040021A60FB689B6AB3F55A
:1032B000005F0FD1FB681B681A68FB681B6822F46B
:1032C00000521A60FB681B681A68FB681B6842F4AE
:1032D00000521A60FB68012283F85D20FB6800221F
:1032E00083F85C20032311E0BB69002B02D100238B
:1032F0007B6202E0BB69013BBB61FB681B689A68AB
:10330000BB6813407A689A4295D100231846283743
:10331000BD4680BD0000002080B586B002AFF860D9
:10332000B9607A607B680093BB6800224FF4C0519B
:10333000F868FFF75BFF0346002B07D0FB681B6EA6
:1033400043F02002FB681A66032327E07B680093A2
:10335000BB6800228021F868FFF7C0FE0346002BFF
:1033600007D0FB681B6E43F02002FB681A6603233C
:1033700014E07B680093BB6800224FF4C061F868DA
:10338000FFF734FF0346002B07D0FB681B6E43F0AA
:103390002002FB681A66032300E00023184610375A
:1033A000BD4680BD80B582B000AF78607B68002BE1
:1033B00001D1012340E07B68DB6F002B06D17B68E5
:1033C000002283F878207868FDF726FC7B682422A9
:1033D000DA677B681B681A687B681B6822F0010249
:1033E0001A607B685B6A002B02D0786800F08EFF61
:1033F000786800F031FD0346012B01D101231BE069
:103400007B681B685A687B681B6822F490425A608C
:103410007B681B689A687B681B6822F02A029A60A6
:103420007B681B681A687B681B6842F001021A609F
:10343000786801F00DF8034618460837BD4680BD90
:1034400080B582B000AF78607B68002B01D101238A
:103450002FE07B682422DA677B681B681A687B6828
:103460001B6822F001021A607B681B6800221A6048
:103470007B681B6800225A607B681B6800229A6088
:103480007868FDF7C1FC7B680022C3F884207B6864
:103490000022DA677B680022C3F880207B68002264
:1034A0001A667B6800225A667B68002283F87820BF
:1034B000002318460837BD4680BD80B58AB002AFEC
:1034C000F860B9603B601346FB80FB68DB6F202B24
:1034D00040F08180BB68002B02D0FB88002B01D11B
:1034E000012379E0FB680022C3F88420FB682122D5
:1034F000DA67FDF767FD7861FB68FA88A3F850206A
:10350000FB68FA88A3F85220FB689B68B3F5805FDC
:1035100008D1FB681B69002B04D10023FB61BB6849
:10352000BB6103E0BB68FB610023BB6138E03B6823
:1035300000937B6900228021F86801F031F803468E
:10354000002B04D0FB682022DA67032344E0FB69E8
:10355000002B0BD1BB691B881A46FB681B68C2F3A2
:1035600008029A62BB690233BB6107E0FB691A7803
:10357000FB681B689A62FB690133FB61FB68DB6FC8
:1035800003F02103212B09D1FB68B3F852309BB221
:10359000013B9AB2FB68A3F8522001E001231BE033
:1035A000FB68B3F852309BB2002BC0D13B6800934C
:1035B0007B6900224021F86800F0F2FF0346002BEF
:1035C00004D0FB682022DA67032305E0FB68202291
:1035D000DA67002300E0022318462037BD4680BD8D
:1035E00080B58AB000AFF860B9601346FB80FB6815
:1035F000D3F88030202B37D1BB68002B02D0FB885A
:10360000002B01D1012330E0FB6800221A66FB6821
:103610001B68184A93421FD0FB681B685B6803F461
:103620000003002B18D0FB681B687B617B6953E8A3
:10363000003F3B613B6943F080637B62FB681B6832
:103640001A467B6A3B62FA61F9693A6A41E80023EB
:10365000BB61BB69002BE6D1FB881A46B968F868E4
:1036600001F00CF8034600E0022318462837BD4657
:1036700080BD00BF0080004080B59AB000AF786088
:103680007B681B68BB64BB6C53E8003F7B647B6C4E
:1036900023F490737B667B681B681A467B6E7B65A0
:1036A0003A65396D7A6D41E80023FB64FB6C002BB1
:1036B000E6D17B681B6808337B637B6B53E8003F74
:1036C0003B633B6B23F001033B667B681B6808335D
:1036D0003A6E3A64FB63F96B3A6C41E80023BB63D2
:1036E000BB6B002BE5D17B681B6E012B18D17B686F
:1036F0001B683B623B6A53E8003FFB61FB6923F0B8
:103700001003FB657B681B681A46FB6DFB62BA629F
:10371000B96AFA6A41E800237B627B6A002BE6D132
:103720007B681B689B6803F04003402B4BD17B6890
:103730001B680833FB60FB6853E8003FBB60BB6855
:1037400023F04003BB657B681B680833BA6DBA6120
:103750007B617969BA6941E800233B613B69002BD1
:10376000E5D17B685B6F002B13D07B685B6F214AD0
:103770009A637B685B6F1846FDF7D8FD0346002B04
:1037800032D07B685B6F9B6B7A68526F10469847AC
:103790002AE07B6800225A657B681B680F221A6248
:1037A0007B681B689A697B681B6842F008029A6113
:1037B0007B682022C3F880207B6800221A66786824
:1037C00000F034FB10E07B6800225A657B681B68C0
:1037D0000F221A627B682022C3F880207B680022B7
:1037E0001A66786800F022FB002318466837BD4649
:1037F00080BD00BFED48000880B5BAB000AF78606A
:103800007B681B68DB69C7F8E4307B681B681B6852
:10381000C7F8E0307B681B689B68C7F8DC30D7F8D6
:10382000E42040F60F031340C7F8D830D7F8D8305B
:10383000002B15D1D7F8E43003F02003002B0FD074
:10384000D7F8E03003F02003002B09D07B689B6E93
:10385000002B00F0CA827B689B6E78689847C4E2B0
:10386000D7F8D830002B00F01781D7F8DC3003F000
:103870000103002B06D1D7F8E020854B1340002B25
:1038800000F00A81D7F8E43003F00103002B11D0D7
:10389000D7F8E03003F48073002B0BD07B681B68F3
:1038A00001221A627B68D3F8843043F001027B68FE
:1038B000C3F88420D7F8E43003F00203002B11D0C2
:1038C000D7F8DC3003F00103002B0BD07B681B68BA
:1038D00002221A627B68D3F8843043F004027B68CA
:1038E000C3F88420D7F8E43003F00403002B11D090
:1038F000D7F8DC3003F00103002B0BD07B681B688A
:1039000004221A627B68D3F8843043F002027B6899
:10391000C3F88420D7F8E43003F00803002B17D055
:10392000D7F8E03003F02003002B05D1D7F8DC30C6
:1039300003F00103002B0BD07B681B6808221A627E
:103940007B68D3F8843043F008027B68C3F8842096
:10395000D7F8E43003F40063002B12D0D7F8E0303E
:1039600003F08063002B0CD07B681B684FF400626F
:103970001A627B68D3F8843043F020027B68C3F876
:1039800084207B68D3F88430002B00F03082D7F895
:10399000E43003F02003002B0DD0D7F8E03003F023
:1039A0002003002B07D07B689B6E002B03D07B6825
:1039B0009B6E786898477B68D3F88430C7F8D4301A
:1039C0007B681B689B6803F04003402B05D0D7F849
:1039D000D43003F02803002B4FD0786800F014FF98
:1039E0007B681B689B6803F04003402B41D17B68D8
:1039F0001B680833C7F89C30D7F89C3053E8003F69
:103A0000C7F89830D7F8983023F04003C7F8D03083
:103A10007B681B680833D7F8D020C7F8A820C7F800
:103A2000A430D7F8A410D7F8A82041E80023C7F89D
:103A3000A030D7F8A030002BD9D17B685B6F002B6A
:103A400013D07B685B6F134A9A637B685B6F184681
:103A5000FDF76CFC0346002B17D07B685B6F9B6BFC
:103A60007A68526F104698470FE0786800F0D4F9F2
:103A70000BE0786800F0D0F907E0786800F0CCF946
:103A80007B680022C3F88420B1E100BFAFE100BF32
:103A900020010004D14800087B681B6E012B40F018
:103AA0006A81D7F8E43003F01003002B00F0638143
:103AB000D7F8E03003F01003002B00F05C817B6846
:103AC0001B6810221A627B681B689B6803F0400326
:103AD000402B40F0D4807B685B6F1B685B68A7F865
:103AE000BE30B7F8BE30002B00F0AD807B68B3F875
:103AF0005830B7F8BE209A4280F0A5807B68B7F8AE
:103B0000BE20A3F85A207B685B6F1B681B6803F01C
:103B10002003002B40F086807B681B68C7F8883044
:103B2000D7F8883053E8003FC7F88430D7F884309E
:103B300023F48073C7F8B8307B681B681A46D7F83F
:103B4000B830C7F89430C7F89020D7F89010D7F85D
:103B5000942041E80023C7F88C30D7F88C30002B34
:103B6000DAD17B681B6808337B677B6F53E8003FC3
:103B70003B673B6F23F00103C7F8B4307B681B68D9
:103B80000833D7F8B420C7F88020FB67F96FD7F85F
:103B9000802041E80023BB67BB6F002BE1D17B682D
:103BA0001B6808333B663B6E53E8003FFB65FB6DCB
:103BB00023F04003C7F8B0307B681B680833D7F8A0
:103BC000B020FA66BB66B96EFA6E41E800237B66E8
:103BD0007B6E002BE3D17B682022C3F880207B68BA
:103BE00000221A667B681B68FB64FB6C53E8003F8D
:103BF000BB64BB6C23F01003C7F8AC307B681B6858
:103C00001A46D7F8AC30BB657A65796DBA6D41E874
:103C100000233B653B6D002BE4D17B685B6F18464E
:103C2000FDF743FB7B6802225A667B68B3F8582095
:103C30007B68B3F85A309BB2D31A9BB219467868A6
:103C400000F0FEF8D5E07B68B3F85830B7F8BE2036
:103C50009A4240F0CE807B685B6F1B681B6803F064
:103C60002003202B40F0C5807B6802225A667B68C7
:103C7000B3F858301946786800F0E2F8B9E07B688C
:103C8000B3F858207B68B3F85A309BB2D31AA7F820
:103C9000CE307B68B3F85A309BB2002B00F0AB807B
:103CA000B7F8CE30002B00F0A6807B681B68BB63A2
:103CB000BB6B53E8003F7B637B6B23F49073C7F8C7
:103CC000C8307B681B681A46D7F8C8307B643A64F2
:103CD000396C7A6C41E80023FB63FB6B002BE4D169
:103CE0007B681B6808337B627B6A53E8003F3B625A
:103CF0003B6A23F00103C7F8C4307B681B680833B4
:103D0000D7F8C4203A63FB62F96A3A6B41E80023B2
:103D1000BB62BB6A002BE3D17B682022C3F8802002
:103D20007B6800221A667B6800229A667B681B68A3
:103D30003B613B6953E8003FFB60FB6823F01003E5
:103D4000C7F8C0307B681B681A46D7F8C030FB61E3
:103D5000BA61B969FA6941E800237B617B69002B8C
:103D6000E4D17B6802225A66B7F8CE3019467868EB
:103D700000F066F83FE0D7F8E43003F48013002B3E
:103D80000ED0D7F8DC3003F48003002B08D07B681A
:103D90001B684FF480121A62786800F0ABFF2DE0C8
:103DA000D7F8E43003F08003002B0ED0D7F8E030D2
:103DB00003F08003002B08D07B68DB6E002B1CD047
:103DC0007B68DB6E7868984717E0D7F8E43003F03B
:103DD0004003002B12D0D7F8E03003F04003002B53
:103DE0000CD0786800F0A3FD08E000BF06E000BF3B
:103DF00004E000BF02E000BF00E000BFE837BD46BE
:103E000080BD00BF80B483B000AF786000BF0C37C6
:103E1000BD465DF8047B704780B483B000AF786026
:103E200000BF0C37BD465DF8047B704780B483B09B
:103E300000AF786000BF0C37BD465DF8047B70476B
:103E400080B483B000AF78600B467B8000BF0C3736
:103E5000BD465DF8047B70472DE9B04F8AB000AFD6
:103E6000F860002387F82230FB689A68FB681B69BA
:103E70001A43FB685B691A43FB68DB6913437B6287
:103E8000FB681B681A689E4B1340FA681268796ACF
:103E90000B431360FB681B685B6823F44051FB68AD
:103EA000DA68FB681B680A435A60FB689B697B629F
:103EB000FB681B68934A934204D0FB681B6A7A6ACA
:103EC00013437B62FB681B689B6823F43061FB68CB
:103ED0001B687A6A0A439A60FB681B688A4A9342A5
:103EE00026D18A4BD3F8883003F00303032B1BD869
:103EF00001A252F823F000BF093F0008193F000853
:103F0000113F0008213F0008012387F82330ABE070
:103F1000022387F82330A7E0042387F82330A3E0A7
:103F2000082387F823309FE0102387F823309BE095
:103F3000FB681B68764A934238D1744BD3F88830BB
:103F400003F00C030C2B2DD801A252F823F000BF74
:103F5000853F0008A53F0008A53F0008A53F0008D1
:103F6000953F0008A53F0008A53F0008A53F0008B1
:103F70008D3F0008A53F0008A53F0008A53F0008A9
:103F80009D3F0008002387F823306DE0022387F867
:103F9000233069E0042387F8233065E0082387F89D
:103FA000233061E0102387F823305DE0FB681B6855
:103FB000584A934225D1554BD3F8883003F030034B
:103FC000302B16D0302B18D8202B0AD0202B14D809
:103FD000002B02D0102B08D00FE0002387F82330ED
:103FE00042E0022387F823303EE0042387F82330A1
:103FF0003AE0082387F8233036E0102387F823308F
:1040000032E0FB681B683F4A93422AD13F4BD3F80A
:10401000883003F44063B3F5406F1AD0B3F5406FB6
:104020001BD8B3F5006F0CD0B3F5006F15D8002B7B
:1040300003D0B3F5806F08D00FE0002387F823305A
:1040400012E0022387F823300EE0042387F82330A0
:104050000AE0082387F8233006E0102387F823308E
:1040600002E0102387F82330FB681B68254A93423F
:1040700040F08A8097F82330082B24D801A252F808
:1040800023F000BFA9400008C7400008B140000865
:10409000C7400008B7400008C7400008C7400008F4
:1040A000C7400008BF400008FEF726FAF86110E09C
:1040B000194BFB610DE0FEF787F9F86109E04FF459
:1040C0000043FB6105E00023FB61012387F82230F8
:1040D00000BFFB69002B00F00981FB685A6813469A
:1040E0005B001344FA699A4205D3FB685B681B03C3
:1040F000FA699A4212D9012387F82230F6E000BF0C
:10410000F369FFEF008000400038014000100240DA
:1041100000440040004800400024F400FB690022F5
:104120001C4615464FF000024FF000032B0243EAF5
:1041300014632202F96849684908002088468146CC
:1041400012EB080A43EB090BFB685B6800223B603B
:104150007A60D7E9002350465946FCF791F80246A9
:104160000B461346BB61BB69B3F5407F08D3BB69FF
:10417000B3F5801F04D2FB681B68BA69DA60B5E04A
:10418000012387F82230B1E0FB68DB69B3F5004F0B
:104190005DD197F82330082B27D801A252F823F0DD
:1041A000C5410008CD410008D5410008EB41000899
:1041B000DB410008EB410008EB410008EB4100083F
:1041C000E3410008FEF798F9F86114E0FEF7AAF958
:1041D000F86110E04C4BFB610DE0FEF7F5F8F8617B
:1041E00009E04FF40043FB6105E00023FB6101237C
:1041F00087F8223000BFFB69002B77D0FB695A009B
:10420000FB685B685B081A44FB685B68B2FBF3F30E
:10421000BB61BB690F2B16D9BB69B3F5803F12D2C6
:10422000BB699BB223F00F03FB82BB695B089BB2A7
:1042300003F007039AB2FB8A1343FB82FB681B68F7
:10424000FA8ADA6052E0012387F822304EE097F8CC
:104250002330082B27D801A252F823F0814200080E
:104260008942000891420008A742000897420008CE
:10427000A7420008A7420008A74200089F42000882
:10428000FEF73AF9F86114E0FEF74CF9F86110E036
:104290001D4BFB610DE0FEF797F8F86109E04FF464
:1042A0000043FB6105E00023FB61012387F8223016
:1042B00000BFFB69002B19D0FB685B685A08FB69DB
:1042C0001A44FB685B68B2FBF3F3BB61BB690F2B5D
:1042D00009D9BB69B3F5803F05D2BB699AB2FB68C7
:1042E0001B68DA6002E0012387F82230FB680022B5
:1042F0009A66FB680022DA6697F82230184628375B
:10430000BD46BDE8B08F00BF0024F40080B483B088
:1043100000AF78607B685B6A03F00803002B0AD06B
:104320007B681B685B6823F400417B685A6B7B6881
:104330001B680A435A607B685B6A03F00103002B29
:104340000AD07B681B685B6823F400317B689A6A3B
:104350007B681B680A435A607B685B6A03F0020350
:10436000002B0AD07B681B685B6823F480317B6874
:10437000DA6A7B681B680A435A607B685B6A03F0F1
:104380000403002B0AD07B681B685B6823F4802140
:104390007B681A6B7B681B680A435A607B685B6AA0
:1043A00003F01003002B0AD07B681B689B6823F482
:1043B00080517B689A6B7B681B680A439A607B68B4
:1043C0005B6A03F02003002B0AD07B681B689B68A4
:1043D00023F400517B68DA6B7B681B680A439A60A0
:1043E0007B685B6A03F04003002B1AD07B681B6874
:1043F0005B6823F480117B681A6C7B681B680A4336
:104400005A607B681B6CB3F5801F0AD17B681B6800
:104410005B6823F4C0017B685A6C7B681B680A43A5
:104420005A607B685B6A03F08003002B0AD07B68CC
:104430001B685B6823F400217B689A6C7B681B68AF
:104440000A435A6000BF0C37BD465DF8047B7047D5
:1044500080B598B002AF78607B680022C3F88420F2
:10446000FCF7B0FD78657B681B681B6803F00803E8
:10447000082B2ED16FF07E4300937B6D00224FF40A
:104480000011786800F08CF80346002B21D07B687F
:104490001B68BB63BB6B53E8003F7B637B6B23F004
:1044A00080033B657B681B681A463B6D7B643A64FE
:1044B000396C7A6C41E80023FB63FB6B002BE6D17F
:1044C0007B682022DA677B68002283F87820032348
:1044D00062E07B681B681B6803F00403042B49D16E
:1044E0006FF07E4300937B6D00224FF4800178686B
:1044F00000F056F80346002B3CD07B681B687B62BB
:104500007B6A53E8003F3B623B6A23F49073FB6491
:104510007B681B681A46FB6C3B63FA62F96A3A6B6C
:1045200041E80023BB62BB6A002BE6D17B681B68B5
:1045300008333B613B6953E8003FFB60FB6823F0B5
:104540000103BB647B681B680833BA6CFA61BB610A
:10455000B969FA6941E800237B617B69002BE5D1E9
:104560007B682022C3F880207B68002283F87820B3
:10457000032311E07B682022DA677B682022C3F8DE
:1045800080207B6800221A667B6800225A667B685E
:10459000002283F87820002318465837BD4680BD96
:1045A00080B584B000AFF860B9603B601346FB7122
:1045B0004FE0BB69B3F1FF3F4BD0FCF703FD024670
:1045C0003B68D31ABA699A4202D3BB69002B01D166
:1045D00003234EE0FB681B681B6803F00403002BF9
:1045E00037D0BB68802B34D0BB68402B31D0FB6800
:1045F0001B68DB6903F00803082B10D1FB681B68FC
:1046000008221A62F86800F0FFF8FB680822C3F875
:104610008420FB68002283F87820012329E0FB68CE
:104620001B68DB6903F40063B3F5006F11D1FB680D
:104630001B684FF400621A62F86800F0E5F8FB6846
:104640002022C3F88420FB68002283F8782003230B
:104650000FE0FB681B68DA69BB681340BA689A42CE
:104660000CBF01230023DBB21A46FB799A42A0D08B
:10467000002318461037BD4680BD000080B497B0B7
:1046800000AFF860B9601346FB80FB68BA685A65F2
:10469000FB68FA88A3F85820FB68FA88A3F85A2028
:1046A000FB6800229A66FB689B68B3F5805F0ED1B9
:1046B000FB681B69002B05D1FB6840F2FF12A3F8D1
:1046C0005C202DE0FB68FF22A3F85C2028E0FB685B
:1046D0009B68002B0DD1FB681B69002B04D1FB6884
:1046E000FF22A3F85C201BE0FB687F22A3F85C207C
:1046F00016E0FB689B68B3F1805F0DD1FB681B6916
:10470000002B04D1FB687F22A3F85C2008E0FB6843
:104710003F22A3F85C2003E0FB680022A3F85C20A2
:10472000FB680022C3F88420FB682222C3F88020A3
:10473000FB681B680833FB63FB6B53E8003FBB63FC
:10474000BB6B43F001037B65FB681B6808337A6D24
:10475000BA647B64796CBA6C41E800233B643B6CBF
:10476000002BE5D1FB689B68B3F5805F07D1FB6840
:104770001B69002B03D1FB68214A9A6602E0FB68A3
:10478000204A9A66FB681B69002B19D0FB681B68DE
:10479000BB62BB6A53E8003F7B627B6A43F4907361
:1047A000FB64FB681B681A46FB6C7B633A63396BDE
:1047B0007A6B41E80023FB62FB6A002BE6D118E02C
:1047C000FB681B687B617B6953E8003F3B613B6989
:1047D00043F020033B65FB681B681A463B6D3B6258
:1047E000FA61F9693A6A41E80023BB61BB69002BB1
:1047F000E6D1002318465C37BD465DF8047B704760
:104800003D4B00088549000880B495B000AF786042
:104810007B681B687B637B6B53E8003F3B633B6BB0
:1048200023F49073FB647B681B681A46FB6C3B6443
:10483000FA63F96B3A6C41E80023BB63BB6B002B56
:10484000E6D17B681B6808333B623B6A53E8003F54
:10485000FB61FB6923F00103BB647B681B680833C1
:10486000BA6CFA62BB62B96AFA6A41E800237B62F9
:104870007B6A002BE5D17B681B6E012B18D17B680E
:104880001B68FB60FB6853E8003FBB60BB6823F01C
:1048900010037B647B681B681A467B6CBB617A6182
:1048A0007969BA6941E800233B613B69002BE6D195
:1048B0007B682022C3F880207B6800221A667B6810
:1048C00000229A6600BF5437BD465DF8047B7047EE
:1048D00080B584B000AF78607B689B6AFB60F86845
:1048E000FFF79AFA00BF1037BD4680BD80B584B08F
:1048F00000AF78607B689B6AFB60FB681B680F22D7
:104900001A62FB681B689A69FB681B6842F0080220
:104910009A61FB682022C3F88020FB6800221A6697
:10492000F868FFF783FA00BF1037BD4680BD80B539
:1049300088B000AF78607B681B68FB60FB6853E859
:10494000003FBB60BB6823F04003FB617B681B68D2
:104950001A46FB69BB617A617969BA6941E800234B
:104960003B613B69002BE6D17B682022DA677B68DC
:104970000022DA667868FFF745FA00BF2037BD46A7
:1049800080BD000080B59CB000AF78607B68B3F854
:104990005C30A7F86E307B68D3F88030222B40F073
:1049A000BE807B681B685B6AA7F86C30B7F86C3018
:1049B000D9B2B7F86E30DAB27B685B6D0A40D2B21A
:1049C0001A707B685B6D5A1C7B685A657B68B3F80C
:1049D0005A309BB2013B9AB27B68A3F85A207B689D
:1049E000B3F85A309BB2002B40F0A1807B681B6863
:1049F000FB64FB6C53E8003FBB64BB6C23F4907317
:104A0000BB667B681B681A46BB6EBB657A65796DB1
:104A1000BA6D41E800233B653B6D002BE6D17B6816
:104A20001B680833BB63BB6B53E8003F7B637B6B46
:104A300023F001037B667B681B6808337A6E7A6417
:104A40003B64396C7A6C41E80023FB63FB6B002B01
:104A5000E5D17B682022C3F880207B6800229A661B
:104A60007B6800225A667B681B68334A93421FD0DA
:104A70007B681B685B6803F40003002B18D07B681D
:104A80001B687B627B6A53E8003F3B623B6A23F012
:104A900080633B667B681B681A463B6E3B63FA6229
:104AA000F96A3A6B41E80023BB62BB6A002BE6D18E
:104AB0007B681B6E012B2ED17B6800221A667B68F7
:104AC0001B683B613B6953E8003FFB60FB6823F0D8
:104AD0001003FB657B681B681A46FB6DFB61BA61BE
:104AE000B969FA6941E800237B617B69002BE6D153
:104AF0007B681B68DB6903F01003102B03D17B6814
:104B00001B6810221A627B68B3F85830194678681F
:104B1000FFF796F90BE0786800F0F6F807E07B689D
:104B20001B689A697B681B6842F008029A6100BFA3
:104B30007037BD4680BD00BF0080004080B59CB08E
:104B400000AF78607B68B3F85C30A7F86E307B68A4
:104B5000D3F88030222B40F0BE807B681B685B6AF4
:104B6000A7F86C307B685B6DBB66B7F86C20B7F854
:104B70006E3013409AB2BB6E1A807B685B6D9A1CD4
:104B80007B685A657B68B3F85A309BB2013B9AB296
:104B90007B68A3F85A207B68B3F85A309BB2002B8D
:104BA00040F0A1807B681B68BB64BB6C53E8003F8E
:104BB0007B647B6C23F490737B667B681B681A466E
:104BC0007B6E7B653A65396D7A6D41E80023FB6445
:104BD000FB6C002BE6D17B681B6808337B637B6B27
:104BE00053E8003F3B633B6B23F001033B667B686C
:104BF0001B6808333A6E3A64FB63F96B3A6C41E820
:104C00000023BB63BB6B002BE5D17B682022C3F87C
:104C100080207B6800229A667B6800225A667B6847
:104C20001B68334A93421FD07B681B685B6803F4A0
:104C30000003002B18D07B681B683B623B6A53E87B
:104C4000003FFB61FB6923F08063FB657B681B68A9
:104C50001A46FB6DFB62BA62B96AFA6A41E8002340
:104C60007B627B6A002BE6D17B681B6E012B2ED109
:104C70007B6800221A667B681B68FB60FB6853E850
:104C8000003FBB60BB6823F01003BB657B681B68FB
:104C90001A46BB6DBB617A617969BA6941E8002344
:104CA0003B613B69002BE6D17B681B68DB6903F045
:104CB0001003102B03D17B681B6810221A627B68DB
:104CC000B3F8583019467868FFF7BAF80BE07868FF
:104CD00000F01AF807E07B681B689A697B681B681C
:104CE00042F008029A6100BF7037BD4680BD00BF28
:104CF0000080004080B483B000AF786000BF0C3704
:104D0000BD465DF8047B704780B582B000AF786027
:104D10007B681B680B4A934203D10B4803F0A6FD46
:104D20000BE07B681B68094A934206D1084B93F855
:104D300048311946064803F0C5FE00BF0837BD4696
:104D400080BD00BF00480040F00200200038014054
:104D50000004002080B483B000AF0346FB71124B07
:104D60001B78132B19D8114B1B781946104AFB7965
:104D700053540E4B1B780133DAB20C4B1A700B4BA9
:104D80001B78132B02D9094B00221A70064B1B7893
:104D90000133DAB2044B1A7000E000BF0C37BD4695
:104DA0005DF8047B704700BFEE020020ED0200209A
:104DB000D802002080B483B000AF7860134B1B781A
:104DC000002B01D100231AE0114B1B7819467B6898
:104DD000104A525C1A700E4B1B780133DAB20C4B3E
:104DE0001A700B4B1B78132B02D9094B00221A7037
:104DF000064B1B78013BDAB2044B1A7001231846AC
:104E00000C37BD465DF8047B704700BFEE02002002
:104E1000EC020020D802002080B584B000AF034629
:104E2000FB71FB79013B082B00F2B38001A252F821
:104E300023F000BF594E0008614E0008694E00087B
:104E4000714E0008694F0008994E0008E54E0008B1
:104E5000ED4E00085B4F0008504801F0C7FA99E09A
:104E60004E4801F0E2FA95E04C4801F0CFFA91E0AB
:104E70004B4B1B78002B06D14A4B1B8819464748E1
:104E800001F0E3FA86E0484B1B7801339BB21946E8
:104E9000424801F0F3FA7DE0444B1B7807EE903A6C
:104EA000B8EEE77A414B5B7807EE903AF8EEE77A96
:104EB000DFED3F6A67EEA67A37EE277A3B4B9B78A9
:104EC00007EE903AF8EEE77ADFED3A6A67EEA67AF7
:104ED00077EE277AC7ED027A97ED020A2F4801F0A4
:104EE0001BFB57E02D4801F003FB53E0324B5B788E
:104EF00007EE903AF8EEE77A9FED307A27EE877A60
:104F00002D4B9B7807EE903AF8EEE77AF2EE046AC2
:104F100067EEA67A37EE277A274BDB7807EE903AD2
:104F2000F8EEE77A77EE277AC7ED037A224B1B7803
:104F3000002B0CD0D7ED037AF5EE407AF1EE10FAA3
:104F400005D0D7ED037AF1EE677AC7ED037A97EDD6
:104F5000030A124801F0B9FA1CE0194B1B781946F4
:104F60000E4801F09CFA15E00D4B1B78002B09D17F
:104F70000C4B1B88DAB2134B1A700A4B1A88114B70
:104F80005A8007E0084B1B7801339AB20D4B9A8088
:104F900000E000BF00BF1037BD4680BDF00200201A
:104FA0009D0500203E00002040000020440000201D
:104FB000CDCCCC3D0AD7233CA40500200000C8423C
:104FC000AE0500200004002080B582B000AF03468B
:104FD000FB71354BB3F80231042B01D800235EE09E
:104FE000314BB3F802311946304803F00BFA03464F
:104FF000002B01D1002352E02B4B9B78012B01D0D9
:1050000000234CE0FB79013B082B47D801A252F862
:1050100023F000BF395000085550000871500008B7
:105020008D5000089D5000088D5000088D500008DC
:105030008D5000088D5000081B4BDB78032B01D0EE
:1050400000232CE0184B1B790C2B01D0002326E009
:10505000012324E0144BDB78032B01D000231EE056
:10506000114B1B79082B01D0002318E0012316E017
:105070000D4BDB78032B01D0002310E00A4B1B798A
:10508000022B01D000230AE0012308E0064BDB7865
:10509000102B01D0002302E0012300E0002318467A
:1050A0000837BD4680BD00BFF0020020F20200209C
:1050B00080B582B000AF6D4B1B78002B00F0AC8048
:1050C0006B4B93F80C31002B00F08580684B00226D
:1050D00083F80C21674B1B781846FFF775FF0346D2
:1050E000002B17D1624B0022A3F802215F4B002254
:1050F0001A70604B1B78032B40F2AD805E4B002290
:105100001A705E4B03221A70FBF75CFF03465C4A81
:105110001360A0E0564BDB78032B48D1554B1B782E
:10512000012B1ED10021524801F009FAF0EE407A1D
:10513000544BC3ED007A02214D4801F000FAF0EE25
:10514000407A514BC3ED007A0421494801F0F7F948
:10515000F0EE407A4D4BC3ED007A4D4B01221A70B0
:1051600025E0444B1B78022B12D10021404801F06E
:10517000E6F9F0EE407A474BC3ED007A02213C4855
:1051800001F0DDF9F0EE407A434BC3ED007A0EE01A
:10519000384B1B78032B0AD10021354801F0E1F987
:1051A0000346DAB23D4B1A70394B01221A70304B6C
:1051B0000022A3F802212D4B00221A702D4B1B78E0
:1051C000032B4AD92D4B02221A70FBF7FBFE034634
:1051D0002B4A136041E0FBF7F5FE0246304B1B689B
:1051E000D31AB3F5FA7F3AD3204B00221A70204B22
:1051F0000022A3F802211E4B002283F80C211D4B34
:105200001B78032B2BD91D4B03221A70FBF7DAFEF8
:1052100003461B4A136022E03B1D1846FFF7CAFDF8
:105220000346002B1DD03A79124B1A70114B1B7894
:105230001846FFF7F1FD0D4B01221A70FBF7C2FE75
:105240000346174A13600B4B1B78032B0AD90B4BF1
:1052500001221A7006E000BF04E000BF02E000BFB8
:1052600000E000BF0837BD4680BD00BFCD02002072
:10527000F0020020EF02002064050020CC02002094
:10528000D40200204C0500205405002058050020C1
:105290003C0000205C05002060050020B0050020D7
:1052A000D002002080B58AB000AF0346FB71062112
:1052B000AF4803F037FE87ED060A0E21AC4803F035
:1052C00031FE87ED050A1021A94803F02BFE87ED7A
:1052D000040AA84B1B78002B10D10D21A44803F021
:1052E00047FE0346002B14BF01230023DBB21A46FE
:1052F000A14B1A70A04B1A78A04B1A70D7ED057A03
:10530000FCEEE77AC7ED007A3B78DAB29C4B1A7074
:10531000D7ED057AB2EE047A67EE877AFCEEE77A8B
:1053200017EE903A9AB2974BA3FB0213D9080B469B
:105330009B000B445B00D31A9BB2DAB2904B5A70BD
:10534000D7ED057A9FED907A67EE877AFCEEE77AE3
:1053500017EE903A9AB28B4BA3FB0213D9080B4677
:105360009B000B445B00D31A9BB2DAB2844B9A7059
:10537000D7ED047AFCEEE77AC7ED007A3B78DAB233
:10538000824B1A70D7ED047AB2EE047A67EE877A10
:10539000FCEEE77A17EE903A9AB27A4BA3FB02132F
:1053A000D9080B469B000B445B00D31A9BB2DAB2C0
:1053B000764B5A70D7ED047A9FED737A67EE877A51
:1053C000FCEEE77A17EE903A9AB26E4BA3FB02130B
:1053D000D9080B469B000B445B00D31A9BB2DAB290
:1053E0006A4B9A70634B1B78002B0BD1684B644A55
:1053F0001188927819809A70664B644A1188927865
:1054000019809A70644B1B78002B0BD1FBF7DAFDE7
:105410000346B3F57A6F05D30320FFF79BFC5E4B81
:1054200001221A705D4803F099FA514803F07AFBA3
:10543000FFF73EFEFBF7C6FD0246594B1B68D31A29
:10544000B3F57A7F07D3FBF7BDFD0346544A1360DB
:105450000120FFF77FFCFBF7B5FD0246514B1B68AF
:10546000D31A42F20F72934207D9FBF7ABFD034602
:105470004C4A13600220FFF76DFCD7ED067AB1EEBF
:105480000E7AF4EEC77AF1EE10FA02DD464B7B623B
:1054900001E0464B7B62D7ED067A9FED457A37EE09
:1054A000C77AD7ED097A67EE277AB7EE007A37EE3A
:1054B000877A404BD3ED007A67EE277AC7ED087AFA
:1054C000D7ED087AF5EEC07AF1EE10FA02D54FF07A
:1054D00000033B6297ED080A0221254803F0E3FC34
:1054E000354BD3ED007AB0EE670A0421204803F073
:1054F000DAFC324A3B6A13603B6AFB600023FB77AD
:105500001D4B1B78012B17D12D4B1B78002B13D172
:1055100097ED037AD7ED057AB4EEE77AF1EE10FA5B
:1055200008DC97ED037AD7ED047AB4EEE77AF1EE72
:1055300010FA01D50123FB77FB7F002B48D0FBF746
:1055400041FD02461F4B1B68D31A41F2873293423A
:1055500047D9FBF737FD03461A4A13601A4B01225D
:105560001A70FBF72FFD0346184A136039E000BF9D
:1055700000040020AA050020AC050020AB05002097
:1055800050000020CDCCCCCC0000C84254000020FC
:10559000480000204C0000206D050020F002002093
:1055A0007005002074050020CDCCCC3D9A99193EA1
:1055B000C3F5F0404C0500205805002050050020A0
:1055C0006C050020780500207C0500208005002067
:1055D000144B00221A7000224FF400511248FCF7BD
:1055E00053F9104B1B78002B16D001224FF40051B9
:1055F0000D48FCF749F9FBF7E5FC02460B4B1B682D
:10560000D31AC72B08D9074B00221A7000224FF477
:1056100000510548FCF738F9002318462837BD46E5
:1056200080BD00BF7C0500200008004880050020E8
:1056300080B582B000AF0346FB7100F0A3FF704B52
:105640001B78002B00F0888002F0F6F86C4B1B787A
:10565000012B0ED16B4A14210A2002F049FD6A4B3E
:1056600001221A7000224FF400516848FCF70CF92F
:1056700045E0634B1B78022B2FD1654A14210A2089
:1056800002F036FD604B01221A70624B1B78002B32
:105690000DD1604B01221A70FBF794FC03465E4A61
:1056A000136001224FF400515848FCF7EDF8594BB4
:1056B0001B78012B23D1FBF785FC0246564B1B6858
:1056C000D31AC72B1BD9534B02221A7000224FF456
:1056D00000514E48FCF7D8F811E0494B1B78032BDA
:1056E0000DD14E4A14210A2002F002FD464B012240
:1056F0001A7000224FF400514448FCF7C5F8404BA3
:105700001B78012B26D0464B1B68002B04D1FBF7DE
:1057100059FC0346424A1360FBF754FC0246404BD7
:105720001B68D31AB3F57A7F14D3354B00221A7055
:105730003B4B00221A60374B00221A70324B00227A
:105740001A7000224FF400513048FCF79DF8354B99
:1057500002221A7000234FE0314B00221A60314BB5
:105760001A78314B1B789A4206D0304B01221A70BE
:105770002C4B1A782C4B1A702A4B1B78082B37D8D5
:1057800001A252F823F000BFAD570008C15700082E
:10579000C7570008CD570008D3570008D95700084D
:1057A000DF570008E5570008EB5700081F4B1B7830
:1057B000002B1FD000F006FF1C4B00221A7019E0CE
:1057C00001F0FEF817E001F069F914E001F0DCF9EE
:1057D00011E001F079FA0EE001F08EFB0BE001F030
:1057E0007BFC08E001F082FD05E001F003FE02E031
:1057F00000BF00E000BF002318460837BD4680BD4B
:10580000CC020020D49900086C0500200008004854
:10581000E09900086405002068050020E899000868
:105820008405002088050020900500203C00002011
:1058300080B582B000AF0346FB7120212548FCF7FC
:105840000BF80346002B0AD100BF20212148FCF7AA
:1058500003F80346002BF8D000F096F834E002215C
:105860001D48FBF7F9FF0346002B0AD100BF0221B8
:105870001948FBF7F1FF0346002BF8D000F0D8FBE6
:1058800022E004211448FBF7E7FF0346002B0AD16E
:1058900000BF04211048FBF7DFFF0346002BF8D0C0
:1058A00000F07CFA10E001210B48FBF7D5FF03461E
:1058B000002B09D100BF01210748FBF7CDFF0346AC
:1058C000002BF8D000F002FD002318460837BD4633
:1058D00080BD00BF000800480004004890B583B0B8
:1058E00000AF0023FB7136E0FB791F4A1B01134414
:1058F00001331B78012B2BD1FB791B4A1B0113446D
:1059000004331B68002B11D0FBF75CFB0246FB79CC
:1059100015491B010B4404331B68D21AFB79124949
:105920001B010B4408331B689A4211D3FC79FBF727
:1059300049FB02460C4923010B4404331A60FB79EE
:10594000094A1B0113440C331B68FA791046984727
:10595000FB790133FB71FB79022BC5D90023184673
:105960000C37BD4690BD00BF0C00002080B582B052
:1059700000AF0346FB71FB791846FFF7EBF900BF58
:105980000837BD4680BD000080B582B000AF8D4BAA
:105990001B78072B00F2D78101A252F823F000BF39
:1059A000C1590008C9590008175A0008975A000839
:1059B000B55A00081D5B0008575B0008215D000810
:1059C000804B01221A70C5E17F4B93F90030032B05
:1059D00017D17D4B00221A7004227C497C4803F0C9
:1059E0004FFB0346002B03D1764B02221A7002E0D4
:1059F000744B00221A7004220021754803F050FBFA
:105A0000A8E1714B93F90030DBB20133DBB25AB23B
:105A10006D4B1A709EE16F4B1B78052B34D801A299
:105A200052F823F03D5A00084B5A0008655A000806
:105A3000735A0008815A0008895A0008664B0022F0
:105A40001A70664B00221A701EE0654B01221A7014
:105A5000644B00221A70644B00221A70634B0022C0
:105A60001A7011E0624B00221A70624B00221A7009
:105A70000AE0614B00221A70604B00221A7003E0AA
:105A80005F4B00221A7000BF524B1B780333DAB20F
:105A90004C4B1A705EE1514B1B78002B03D14F4BDE
:105AA00001221A7056E14D4B00221A700420FFF7B4
:105AB0005DFF4FE14A4B1B78002B0ED14A4B1B7800
:105AC000002B03D1484B01221A703EE1464B0022C5
:105AD0001A700720FFF74AFF37E1424B1B78002B73
